:100000000C9424010C9468010C9468010C94680110
:100010000C9468010C9468010C9468010C946801BC
:100020000C9468010C9468010C9463070C943508D7
:100030000C94F0160C9468010C9468010C946801FF
:100040000C9468010C94D31F0C9468010C94680103
:100050000C9468010C9457170C9468010C94680177
:100060000C9468010C9468010C9468010C9468016C
:100070000C9468010C9468010C9468010C9468015C
:100080000C9468010C9468010C9468010C9468014C
:100090000C9468010C9468010C9468010C9468013C
:1000A0000C9468010C9468010C9468019508B508DB
:1000B0006D09B5086D09F7081A096D093C094F0962
:1000C000590C590C870C870CE30C1F0D840F840FFF
:1000D000370D840F2E0E2E0EEA0EFE0E840F720FB9
:1000E000F1A100D200D100D0291E1F2021222324FB
:1000F0002526272D2E2A2B141A0815171C180C122A
:10010000132F303139041607090A0B0D0E0F333443
:100110000028E1001D1B0619051110363738C052A2
:10012000E0E3E200002C00E55000E6E4514F353AF0
:100130003B3C3D3E3F4041424344454C010152015E
:10014000010101010101464748010150514F0101E0
:10015000010101494A4B000101000165C1C2C3010F
:10016000A8AAA94E0101010101000001000101003E
:10017000010101010000000000000000000000007B
:10018000000000000000000000000000000000006F
:10019000000000000000000000000000000000005F
:1001A000000000000000000000000000000000004F
:1001B00000000000000000000000001080FF0103AC
:1001C00000200122022200200000000000000000A8
:1001D00000000101010202020303040405050606F2
:1001E000070808090A0B0B0C0D0E0F10111213153E
:1001F0001617191A1B1D1E2022232527292B2D2FE8
:10020000313335383A3D3F4244474A4D50535659B1
:100210005C5F6266696C7074777B7E82868A8E9181
:1002200095999DA1A5A9ADB0B4B8BCC0C3C7CBCEAC
:10023000D2D5D8DBDFE2E4E7EAECEFF1F3F5F7F84B
:10024000FAFBFCFDFEFFFFFF11241FBECFEFDAE03B
:10025000DEBFCDBF04B603FE24C08091AF039091F2
:10026000B003A091B103B091B2038730904BA74087
:10027000B04BB9F41092AF031092B0031092B103D7
:100280001092B20314BE84B7877F84BF88E10FB693
:10029000F89480936000109260000FBEE0E0F8E3F5
:1002A000099512E0A0E0B1E0E6EDF9E402C00590A6
:1002B0000D92AA3DB107D9F723E0AAEDB2E001C043
:1002C0001D92AF3AB207E1F70E9438050C94E92479
:1002D0000C9400009EE0799FF001112496E4899F20
:1002E000E00DF11D1124E60FF11DE851FF4F84913F
:1002F0000895E82FF0E0EE0FFF1FE05AF0408591DF
:10030000949108958AB1807D8AB98BB1807D8BB933
:10031000089580E885BF85BF0E94820180B38C7FED
:1003200080BB81B3836081BB6E98769A8AB18F72ED
:100330008AB98BB1806D8BB987B18F7387B988B15A
:10034000806C88B984B1847084B985B18B6F85B9AC
:10035000E4EEF2E0AAEDB2E0119211921D921D922C
:1003600082E0EE3EF807C1F70895FF920F931F93C6
:10037000CF93DF93CAEDD2E010E001E0A5E0FA2EC2
:10038000123071F018F4113041F004C0133059F0FC
:10039000143061F0509A58980BC0519A599808C07F
:1003A000529A5A9805C0539A5B9802C0559A5D9824
:1003B00080EA8A95F1F78FB18170802790E0799B70
:1003C00003C020E030E002C022E030E0822B932B1B
:1003D000669B03C020E030E002C024E030E0822BC6
:1003E000932B26B1332727FD309520953095222772
:1003F000330F221F3327F3E0220F331FFA95E1F763
:10040000822B932B369B03C060E070E002C060E15A
:1004100070E0862B972B1E9B03C060E070E002C04B
:1004200060E270E0682B792B4C9B03C020E030E049
:1004300002C020E430E0262B372B199B03C040E09C
:1004400050E002C040E850E0422B532B189B0DC0F7
:1004500083B1992787FD9095809590958827990F6E
:10046000881F9927982F882702C080E091E0842B6D
:10047000952B1D9B03C020E030E002C020E032E05D
:10048000822B932B1C9B03C020E030E002C020E0B5
:1004900034E0822B932B29B1332727FD309520950B
:1004A00030952227330F221F3327322F2227330F75
:1004B000330F330F822B932B4E9B03C020E030E091
:1004C00002C020E030E1822B932B1B9B03C020E075
:1004D00030E002C020E030E2822B932B288139816A
:1004E0002817390721F099838883F09200010E9430
:1004F00082011F5F2296153009F042CF80910001E2
:100500008823C1F0815080930001882339F08FE95E
:100510009FE00197F1F700C000000CC0A4EEB2E02C
:10052000EAEDF2E0819191918D939D9392E0E43E0A
:10053000F907C1F781E0DF91CF911F910F91FF90F3
:100540000895E82FF0E0EE0FFF1FEC51FD4F808182
:10055000918108950895CF93DF93C82F8093EE0281
:100560000E94191FC73088F4C43018F5C130D8F183
:100570000E94371F0E94941F0E94CB1FEC2FF0E0B7
:10058000E654FE4FD491C0E00CC0C730F1F0C83043
:1005900051F50E94371F0E948E1F0E94CB1F81E0E1
:1005A0001BC06D2F8C2F0E944C1FCF5FC530C9F729
:1005B00022C00E94371F0E94C51F0E94941F86E020
:1005C0008C1BDF91CF910C94D01F0E94371F0E948B
:1005D0008E1F0E94CB1F80E00E94A91F83E0DF9145
:1005E000CF910C94B71F0E94941F0E94CB1FDF91E4
:1005F000CF910C943D1FDF91CF9108951F93CF931E
:10060000DF9300D000D01F92CDB7DEB7162F8091B8
:10061000EE02873041F4662331F080E20E94BA1F77
:1006200080E10E94801F8091EE02883081F41123C6
:1006300071F080E20E94BA1F80E10F900F900F903E
:100640000F900F90DF91CF911F910C94661F0F9028
:100650000F900F900F900F90DF91CF911F91089501
:10066000E82FF0E0EE0FFF1FE254FE4F85919491CA
:100670000895229A2A9A80B3806F80BB81B38F70CD
:1006800081BB0895823079F028F4882341F08130CD
:1006900041F00895833049F0843049F008952A9854
:1006A00008958E9A08958F9A08958C9A08958D9A38
:1006B0000895823079F028F4882341F0813041F0A8
:1006C0000895833049F0843049F008952A9A0895B6
:1006D0008E9808958F9808958C9808958D98089510
:1006E0008091FF020895CF93DF9300D01F92CDB782
:1006F000DEB72091A403243019F523E029839B83DE
:100700008A832093E9008FEF9091E800815095FD56
:1007100006C095ED9A95F1F700008111F5CF809113
:10072000E80085FF0DC040E050E063E070E0CE01DE
:1007300001960E94DB058091E8008E778093E800A7
:100740000F900F900F90DF91CF910895CF93DF938B
:1007500000D01F92CDB7DEB72091A403243021F53D
:1007600022E029839B838A8383E08093E9008FEFD3
:100770009091E800815095FD06C095ED9A95F1F7AE
:1007800000008111F5CF8091E80085FF0DC040E0A9
:1007900050E063E070E0CE0101960E94DB0580919D
:1007A000E8008E778093E8000F900F900F90DF9114
:1007B000CF9108952091A4032430F1F422E02093F6
:1007C000E9002FEF3091E800215035FD06C035EDEE
:1007D0003A95F1F700002111F5CF2091E80025FFAF
:1007E0000BC040E050E065E070E00E94DB058091C6
:1007F000E8008E778093E8000895CF93DF93EC01B3
:100800008091A403843009F046C090910B01992394
:10081000D9F090910C019923B9F08093E9008FEF02
:100820009091E800815095FD06C095E19A95F1F709
:1008300000008111F5CF8091E80085FF2CC040E0D9
:1008400050E060E170E017C081E08093E9008FEF35
:100850009091E800815095FD06C095ED9A95F1F7CD
:1008600000008111F5CF8091E80085FF14C040E0C1
:1008700050E068E070E0CE010E94DB058091E80066
:100880008E778093E80080E1FE01AFEEB2E0019048
:100890000D928A95E1F7DF91CF9108958091A3039E
:1008A000811109C00E94EA060E9445078091E2007A
:1008B00084608093E20008951092A3030895089540
:1008C000089542E061EC81E00E94850642E061EC1F
:1008D00082E00E94850642E061EC83E00E9485068A
:1008E00042E161EC84E00C9485068091A60383309C
:1008F00009F455C030F4813071F0823009F48EC0B3
:1009000008958A3009F47AC08B3009F460C08930C8
:1009100009F09CC020C08091A503813A09F096C0DF
:100920008091E800877F8093E8008091A9039091EF
:10093000AA03892B21F060E080E090E003C060E131
:100940008FEE92E070E00E9424068091E8008B77A1
:100950008093E80008958091A503813209F076C064
:100960008091A9039091AA03009719F0039709F0C9
:100970006DC08091E800877F8093E8008091E80057
:1009800082FD05C08091A4038111F8CF5FC08091E2
:10099000F1008093FF028091E8008B7753C0809133
:1009A000A503813A09F052C08091A9039091AA034E
:1009B000892B09F04BC08091E800877F8093E80085
:1009C0008091E80080FFFCCF80910B0136C08091C0
:1009D000A5038132D9F58091A9039091AA03892BAF
:1009E000A9F58091E800877F8093E8000E9499062E
:1009F0008091A70380930B010C94A50F8091A50310
:100A0000813221F58091E800877F8093E8000E9481
:100A100099068091A8038093000308958091A5030F
:100A2000813AA1F48091E800877F8093E80080916B
:100A3000E80080FFFCCF809100038093F10080915B
:100A4000E8008E778093E8000C9499060895089545
:100A5000089508950C9429050E94AD168091A20373
:100A6000882329F00E94D71681110C94C50508959A
:100A700084B7877F84BF88E10FB6F89480936000C5
:100A8000109260000FBE90E080E80FB6F89480935B
:100A90006100909361000FBE0E9427050E94D50956
:100AA0000E94EA060E9445078091E20084608093DC
:100AB000E20078948091A4038430E1F70E94D70982
:100AC00081E091E00E9481090E9428058091A403A1
:100AD000853019F40E942C05F9CF0E94E309F6CF66
:100AE0000C94EC160C947005292F33272330310514
:100AF00099F05CF421303105D9F122303105E9F566
:100B00008DE690E024E531E03CC02132310599F0DA
:100B100022323105E9F031C099278330910568F51B
:100B2000FC01EE0FFF1FE45DFE4F20813181FC01CF
:100B3000E75DFE4F1AC0643000F5E62FF0E0EE0FDF
:100B4000FF1FEF5DFE4F2081318189E090E019C0E9
:100B5000643098F4E62FF0E0DF01AA0FBB1FA75E18
:100B6000BE4F2D913C91EB5EFE4F808190E009C01D
:100B700082E190E021EC31E004C080E090E020E0F0
:100B800030E0FA0131832083089580E189BD82E15C
:100B900089BD09B400FEFDCF8091D8008F7D809380
:100BA000D8008091E00082608093E0008091E000B6
:100BB00081FDFCCF0895CF92DF92EF92FF920F93C9
:100BC0001F93CF93DF937C018B01EA010E94BA0649
:100BD000811131C0209731F088819981081B190B50
:100BE000E80EF91EC12CD12C0115110519F18091C7
:100BF000E80085FD14C08091E8008E778093E800BE
:100C0000209741F0888199818C0D9D1D998388835F
:100C100085E011C00E94BA06882331F30CC0F701A9
:100C200081917F018093F10001501109FFEFCF1AEC
:100C3000DF0ADACF80E0DF91CF911F910F91FF9013
:100C4000EF90DF90CF9008952091AB033091AC03EB
:100C50002617370748F06115710539F42091E8002F
:100C60002E772093E80001C0B901FC0120E0611556
:100C70007105B9F18091A403882309F440C085303F
:100C800009F43FC08091E80083FD3DC08091E800F9
:100C900082FF06C08091E80082FF26C080E00895B0
:100CA0008091E80080FFE3CF2091F3008091F20073
:100CB00090E0922B6115710551F08830910538F460
:100CC00021912093F100615071090196F3CF21E049
:100CD000089709F020E08091E8008E778093E80083
:100CE000C6CF2111C7CFD6CF8091A403882339F076
:100CF000853039F08091E80083FFCCCF04C082E0DA
:100D0000089583E0089581E008958F708093E9004D
:100D1000EBEEF0E0808181608083EDEEF0E0108208
:100D20006093EC0040838091EE00881F8827881F25
:100D300008958091A50387FD05C08091E80080FF9C
:100D40000EC012C08091E80082FD05C08091A4030E
:100D50008111F8CF08958091E8008B7708C08091C9
:100D6000A4038111EACF08958091E8008E778093E3
:100D7000E80008958091E4009091E50045E6209117
:100D8000EC0020FF21C02091E80020FD21C020912F
:100D9000A403222389F0253089F02091EB0025FD62
:100DA0000FC02091E4003091E5002817390739F38E
:100DB000415041F0C901E3CF82E0089583E00895F6
:100DC00081E0089584E008952091E80022FFDFCFBC
:100DD00080E008950E9456070E945E07E0EEF0E072
:100DE000808181608083E8EDF0E080818F7780836F
:100DF00019BCA7EDB0E08C918E7F8C9380818F7EA3
:100E000080831092A30308950F931F93CF93DF93D2
:100E10000E9456070E945E07C8EDD0E088818F7758
:100E2000888388818068888388818F7D888319BCC6
:100E30001092A4031092A1031092A20300EE10E0FE
:100E4000F80180818B7F808388818160888342E084
:100E500060E080E00E948506E1EEF0E080818E7F18
:100E60008083E2EEF0E08081816080838081886011
:100E70008083F80180818E7F808388818061888370
:100E8000DF91CF911F910F910895E8EDF0E08081FF
:100E90008F7E8083E7EDF0E080818160808384E055
:100EA00082BF81E08093A3030C940407E8EDF0E097
:100EB00080818E7F80831092E20008951092DA0084
:100EC0001092E10008951F920F920FB60F92112415
:100ED0002F933F934F935F936F937F938F939F9342
:100EE000AF93BF93EF93FF938091E10082FF0BC01C
:100EF0008091E20082FF07C08091E1008B7F8093A8
:100F0000E1000E9460048091DA0080FF1FC08091A0
:100F1000D80080FF1BC08091DA008E7F8093DA00BA
:100F20008091D90080FF0DC080E189BD82E189BD3B
:100F300009B400FEFDCF81E08093A4030E944E041B
:100F400005C019BC1092A4030E945C048091E100CA
:100F500080FF19C08091E20080FF15C08091E200FF
:100F60008E7F8093E2008091E20080618093E200B6
:100F70008091D80080628093D80019BC85E080936E
:100F8000A4030E942A058091E10084FF30C0809173
:100F9000E20084FF2CC080E189BD82E189BD09B4F3
:100FA00000FEFDCF8091D8008F7D8093D800809186
:100FB000E1008F7E8093E1008091E2008F7E80933C
:100FC000E2008091E20081608093E2008091A103C1
:100FD000882311F084E007C08091E30087FF02C0FE
:100FE00083E001C081E08093A4030E947205809198
:100FF000E10083FF29C08091E20083FF25C080913A
:10100000E100877F8093E10082E08093A403109247
:10101000A1038091E1008E7F8093E1008091E20046
:101020008E7F8093E2008091E20080618093E200F5
:1010300042E060E080E00E9485068091F0008860D8
:101040008093F0000E945F04FF91EF91BF91AF91F8
:101050009F918F917F916F915F914F913F912F91D0
:101060000F900FBE0F901F9018951F920F920FB602
:101070000F9211242F933F934F935F936F937F931E
:101080008F939F93AF93BF93CF93EF93FF93C091B1
:10109000E900CF708091EC001092E9008091F0009F
:1010A000877F8093F00078940E9471081092E90085
:1010B0008091F00088608093F000C093E900FF9178
:1010C000EF91CF91BF91AF919F918F917F916F9150
:1010D0005F914F913F912F910F900FBE0F901F90F6
:1010E00018951F93CF93DF9300D0CDB7DEB7E5EA15
:1010F000F3E08091F100819383E0ED3AF807C9F7BE
:101100000E9475048091E80083FFE7C02091A50349
:101110003091A603832F90E08A30910508F0DDC05E
:10112000FC01EA5AFF4F0C949E24203881F02238AB
:1011300009F0D3C08091A9038F708093E90080915A
:10114000EB0085FB882780F91092E90004C08091AC
:10115000A203811182E09091E800977F9093E800CC
:101160008093F1001092F10092C0822F8D7F09F0E0
:10117000B4C0222319F0223061F0AFC08091A703E0
:10118000813009F0AAC0333009F080E08093A203D7
:1011900028C08091A703811124C02091A9032F703A
:1011A00009F49BC02093E9008091EB0080FF19C0F7
:1011B0008091EB00333011F4806211C08061809324
:1011C000EB0081E090E0022E01C0880F0A94EAF75C
:1011D0008093EA001092EA008091EB00886080938F
:1011E000EB001092E9008091E800877F53C0211145
:1011F00074C01091A7031F778091E3008078812B42
:101200008093E3008091E800877F8093E8000E944C
:1012100099068091E80080FFFCCF8091E300806810
:101220008093E300112311F083E001C082E08093FA
:10123000A40353C02058223008F04FC0AE014F5FC6
:101240005F4F6091A9038091A7039091A8030E942A
:101250007405009709F441C02091E800277F20938E
:10126000E800BC0189819A810E9424068091E800EF
:101270008B778093E80031C0203879F58091E800C1
:10128000877F8093E8008091A1038093F100809193
:10129000E8008E778093E8000E9499061EC0211115
:1012A0001CC09091A7039230C0F48091E800877F22
:1012B0008093E8009093A1030E9499068091A10376
:1012C000811104C08091E30087FF02C084E001C067
:1012D00081E08093A4030E9461048091E80083FF71
:1012E0000AC08091E800877F8093E8008091EB003E
:1012F00080628093EB000F900F90DF91CF911F9150
:10130000089590930603809305030895E0910503E3
:10131000F0910603309721F00190F081E02D0994BF
:1013200080E00895E0910503F0910603309721F0E5
:101330000280F381E02D09940895E0910503F09176
:101340000603309721F00480F581E02D099408957B
:1013500020910303309104038217930771F0909357
:10136000040380930303E0910503F0910603309793
:1013700021F00680F781E02D099408952091010362
:10138000309102038217930771F0909302038093C8
:101390000103E0910503F0910603309721F00084EA
:1013A000F185E02D0994089508950C94D4090E94C4
:1013B00019170E9489010E942E190E94DB210E94A8
:1013C000061F0C94EB205F926F927F928F929F92F8
:1013D000AF92BF92CF92DF92EF92FF920F931F9343
:1013E000CF93DF9300D000D01F92CDB7DEB70E941D
:1013F000B50198E0C92E93E0D92E00E010E0AA24B0
:10140000A394B12C502E802F0E94A1023C01F60122
:10141000E190F1906F01E826F926E114F104B1F4AE
:101420000F5F1F4F0530110569F78FEF89838A839E
:101430001B820E9422178160782F9D838C834981B3
:101440005A816B818D810E94A00A41C080916803FE
:1014500081FD0E94AA0220E030E04501022E02C078
:10146000880C991C0A94E2F7C4018E219F21892BD4
:1014700041F129835A826820792081E0672809F4A4
:1014800080E08B830E9422178160782F9D838C835C
:1014900049815A816B818D810E94A00A49815A81BC
:1014A0006B817C818D810E94FE02F801EE0FFF1F8F
:1014B000E85FFC4F80819181882599259183808305
:1014C00006C02F5F3F4F2E30310539F6A9CF0E945D
:1014D000AB160E94421C109107030E948609181740
:1014E000D1F00E948609809307030F900F900F9010
:1014F0000F900F90DF91CF911F910F91FF90EF9080
:10150000DF90CF90BF90AF909F908F907F906F9023
:101510005F900C944A220F900F900F900F900F90B5
:10152000DF91CF911F910F91FF90EF90DF90CF90BF
:10153000BF90AF909F908F907F906F905F90089535
:10154000CF93DF93CDB7DEB72B970FB6F894DEBFFE
:101550000FBECDBF4F83588769877A878B878A856F
:101560009B85892B31F05F3F11F080E003C04F3F36
:10157000E1F781E0811107C04F81588569857A853F
:101580008B850E94FE02DE01119686E0FD0111921C
:101590008A95E9F785E0FE01379601900D928A95CC
:1015A000E1F749815A816B817C818D819E810E9406
:1015B00071122B960FB6F894DEBF0FBECDBFDF9130
:1015C000CF910895CF93C82F882309F4CCC08238D7
:1015D00059F40E94860981FDC6C089E30E94EE1479
:1015E0000E94851689E30CC0833879F40E9486092D
:1015F00080FDB9C083E50E94EE140E94851683E544
:101600000E94B315CF910C948516843859F40E942A
:10161000860982FDA8C087E40E94EE140E94851608
:1016200087E4EECF8CEF8C0F813A48F48C2F0E9428
:10163000711E811198C08C2F0E94EE14E3CF80E2BE
:101640008C0F883048F4C77081E001C0880FCA95BC
:10165000EAF70E945416D6CF8BE58C0F833078F4CE
:10166000C53A29F0C63A31F482E890E005C081E835
:1016700090E002C083E890E0CF910C94A80988E53F
:101680008C0F853108F06FC0C83A61F1C93A69F131
:10169000CA3A71F1CB3A79F1CC3A81F1CD3A89F17C
:1016A000CE3A91F1CF3A99F1C13BA1F1C03BA9F1FA
:1016B000C23BB1F1C33BB9F1C43BC1F1C53BC9F178
:1016C000C63BD1F1C73BD9F1C83BE1F1C93BE9F1D8
:1016D000CA3BF1F1CB3BF9F1CC3B09F03FC08AE2C8
:1016E00092E03EC082EE90E03BC089EE90E038C0D0
:1016F0008AEE90E035C085EB90E032C086EB90E05A
:101700002FC083EB90E02CC084EB90E029C087EBE6
:1017100090E026C08CEC90E023C08DEC90E020C0DF
:1017200083E891E01DC08AE891E01AC082E991E067
:1017300017C084E991E014C081E292E011C083E215
:1017400092E00EC084E292E00BC085E292E008C015
:1017500086E292E005C087E292E002C080E090E07D
:10176000CF910C94BE09CF910895882309F44BC002
:10177000823859F40E94860981FF45C089E30E949E
:10178000EE140E94851689E30CC0833871F40E9420
:10179000860980FF38C083E50E94EE140E948516FA
:1017A00083E50E94B3150C948516843859F40E9481
:1017B000860982FF28C087E40E94EE140E948516E5
:1017C00087E4EFCF9CEF980F913A58F390E2980F8F
:1017D000983050F4877091E001C0990F8A95EAF72C
:1017E000892F0E945A16DFCF9BE5980F933020F483
:1017F00080E090E00C94A809885A853120F480E0BC
:1018000090E00C94BE090895882321F00E9454169C
:101810000C9485160895882321F00E945A160C9482
:1018200085160895CF92DF92EF92FF920F931F9348
:10183000CF93DF93CDB7DEB728970FB6F894DEBF0E
:101840000FBECDBF8C0185E0F801DE01119601903D
:101850000D928A95E1F7F80140813181F28025816E
:1018600022952F7083819481892B31F03F3F31F491
:1018700081E04F3F19F403C081E001C080E080FDAA
:1018800043C349833A8389819A812F830E94AC1490
:101890009E8388870E94AB140E94D3134E81E42F4D
:1018A000E295EF70F0E0E05AFF4F2F8168850C94CD
:1018B0009E24842F807F142F1F70882311F012958F
:1018C000107FFF2059F0112309F45FC2812F688730
:1018D0000E9467160E948516688557C2862F0E944F
:1018E000B50B112309F410C3812F0E946D162896A1
:1018F0000FB6F894DEBF0FBECDBFDF91CF911F9121
:101900000F91FF90EF90DF90CF900C948516842F6D
:10191000807F942F9F70E92E803219F0E29480EF3F
:10192000E822662319F0613001F129C0FF20A9F0F7
:101930008E2D222349F1213039F528960FB6F894DF
:10194000DEBF0FBECDBFDF91CF911F910F91FF90F2
:10195000EF90DF90CF900C947716222319F021306E
:1019600009F4D2C20E947A162CC0FF20E9F026307A
:1019700008F0CAC20E9451168E2129F022C0FF2011
:10198000F1F0211115C08E2D28960FB6F894DEBF08
:101990000FBECDBFDF91CF911F910F91FF90EF90C0
:1019A000DF90CF900C94040C253008F0ADC209C034
:1019B000F801858180FFE9C18F708583E4CF211113
:1019C000F8C18E2D66C1242F26952695237030E010
:1019D0002115310521F021303105C9F095C2FF20D4
:1019E00021F0862F942F937002C080E090E028961B
:1019F0000FB6F894DEBF0FBECDBFDF91CF911F9120
:101A00000F91FF90EF90DF90CF900C94A809FF20EA
:101A100021F0862F942F937002C080E090E02896EA
:101A20000FB6F894DEBF0FBECDBFDF91CF911F91EF
:101A30000F91FF90EF90DF90CF900C94BE09862F0E
:101A4000FF2019F00E944A1B02C00E94B21B289678
:101A50000FB6F894DEBF0FBECDBFDF91CF911F91BF
:101A60000F91FF90EF90DF90CF900C94371C842F54
:101A7000837009F076C0F11047C2262F2295269573
:101A80002770220F220F862F8F70C82ED12CE12CA9
:101A9000F12C022E04C0CC0CDD1CEE1CFF1C0A94A1
:101AA000D2F764FF10C06FE070E080E090E004C007
:101AB000660F771F881F991F2A95D2F7609570953A
:101AC0008095909503C060E070E0CB01242F2695AF
:101AD00026952370422F50E042305105D1F043301B
:101AE000510559F16C297D298E299F2941305105D5
:101AF00041F128960FB6F894DEBF0FBECDBFDF913F
:101B0000CF911F910F91FF90EF90DF90CF900C94A9
:101B1000E8136C297D298E299F2928960FB6F89401
:101B2000DEBF0FBECDBFDF91CF911F910F91FF9010
:101B3000EF90DF90CF900C94FA130E94E813C70146
:101B4000B60128960FB6F894DEBF0FBECDBFDF9169
:101B5000CF911F910F91FF90EF90DF90CF900C9459
:101B6000D613FF2019F0842F817001C08695882339
:101B700009F4CAC1262F229526952770220F220F1D
:101B8000862F8F70C82ED12CE12CF12C022E04C090
:101B9000CC0CDD1CEE1CFF1C0A94D2F764FF10C0B5
:101BA0006FE070E080E090E004C0660F771F881F50
:101BB000991F2A95D2F7609570958095909503C0EE
:101BC00060E070E0CB01242F269526952370422FEC
:101BD00050E042305105D1F04330510559F16C29A4
:101BE0007D298E299F294130510541F128960FB654
:101BF000F894DEBF0FBECDBFDF91CF911F910F9143
:101C0000FF90EF90DF90CF900C9487146C297D2982
:101C10008E299F2928960FB6F894DEBF0FBECDBF40
:101C2000DF91CF911F910F91FF90EF90DF90CF90B8
:101C30000C9499140E948714C701B60128960FB618
:101C4000F894DEBF0FBECDBFDF91CF911F910F91F2
:101C5000FF90EF90DF90CF900C947514603F49F1A6
:101C600018F4603E48F48CC0623F09F451C0E0F1C2
:101C7000633F09F461C084C0162F1F70842F8F71D9
:101C8000FF2021F00E942014812F7ECE0E943B1461
:101C9000812F28960FB6F894DEBF0FBECDBFDF911F
:101CA000CF911F910F91FF90EF90DF90CF900C9408
:101CB0000B0CFF20A9F0253008F026C1842F8F716E
:101CC00028960FB6F894DEBF0FBECDBFDF91CF913F
:101CD0001F910F91FF90EF90DF90CF900C945A14CA
:101CE000263008F011C1EACFFF20A1F0842F8F71B8
:101CF00028960FB6F894DEBF0FBECDBFDF91CF910F
:101D00001F910F91FF90EF90DF90CF900C942014D3
:101D1000FF2061F3842F8F7128960FB6F894DEBFF1
:101D20000FBECDBFDF91CF911F910F91FF90EF902C
:101D3000DF90CF900C943B14FF2091F0842F8F7193
:101D400028960FB6F894DEBF0FBECDBFDF91CF91BE
:101D50001F910F91FF90EF90DF90CF900C94111492
:101D600028960FB6F894DEBF0FBECDBFDF91CF919E
:101D70001F910F91FF90EF90DF90CF900C940C1477
:101D8000FF20A1F0222309F4B1CF862F28960FB6A9
:101D9000F894DEBF0FBECDBFDF91CF911F910F91A1
:101DA000FF90EF90DF90CF900C94E20A222309F489
:101DB000B1CF862F28960FB6F894DEBF0FBECDBFE9
:101DC000DF91CF911F910F91FF90EF90DF90CF9017
:101DD0000C94B50B4F70C8010E94D01828960FB60E
:101DE000F894DEBF0FBECDBFDF91CF911F910F9151
:101DF000FF90EF90DF90CF900C941E13F11084C0F1
:101E0000662341F0842F8F70843021F0407F862F2D
:101E10008F70482B942F9F70492F50E0423051050E
:101E200009F440C0BCF44115510561F14130510540
:101E300009F06AC028960FB6F894DEBF0FBECDBF7A
:101E4000DF91CF911F910F91FF90EF90DF90CF9096
:101E50000C94152143305105A9F14430510509F086
:101E600053C0862F28960FB6F894DEBF0FBECDBFA5
:101E7000DF91CF911F910F91FF90EF90DF90CF9066
:101E80000C94722128960FB6F894DEBF0FBECDBF1A
:101E9000DF91CF911F910F91FF90EF90DF90CF9046
:101EA0000C94FC2028960FB6F894DEBF0FBECDBF71
:101EB000DF91CF911F910F91FF90EF90DF90CF9026
:101EC0000C942E2128960FB6F894DEBF0FBECDBF1E
:101ED000DF91CF911F910F91FF90EF90DF90CF9006
:101EE0000C944D214F70C80128960FB6F894DEBFB0
:101EF0000FBECDBFDF91CF911F910F91FF90EF905B
:101F0000DF90CF900C94D31828960FB6F894DEBFCC
:101F10000FBECDBFDF91CF911F910F91FF90EF903A
:101F2000DF90CF9008950E9474160E9443160E947D
:101F300085160E94E31C0E94371C80E090E00E94FE
:101F4000A80980E090E00C94BE090E9464160C94ED
:101F5000930F0E94AC14292F22952F7030E02C3063
:101F600031054CF42A3031056CF42250310922300D
:101F7000310590F407C02C30310551F02F30310578
:101F800039F00AC0803E10F0803F31F481E00895BE
:101F900093FB882780F9089580E00895CF93DF931D
:101FA00000D000D01F92CDB7DEB70F900F900F90EA
:101FB0000F900F90DF91CF910895CF93DF9300D0D2
:101FC00000D000D0CDB7DEB726960FB6F894DEBFAE
:101FD0000FBECDBFDF91CF9108951F93CF93DF93B5
:101FE000C091120316E080911303C81799F0D0E056
:101FF0001C9FF0011D9FF00D1124EC5EFC4F4081F1
:10200000518162817381848195810E94DD0F2196C7
:10201000C770E9CFDF91CF911F910895409144039C
:1020200050914503609146037091470380914803A6
:10203000909149030C94DD0FCF93809149038295D1
:102040008F7009F05FC080914603882309F45AC05D
:1020500020911203A09113036091440370914503F2
:10206000809147039091480331E06F3F09F030E0E1
:10207000B32FC6E02A1709F445C0009721F07F3F2F
:1020800021F44B2F03C041E001C040E030E040FDAF
:1020900035C0C29FF001C39FF00D1124EC5EFC4FD0
:1020A000418174132BC04081641328C042814111C7
:1020B00025C0438154814817590710F441505109F4
:1020C000481B590B483C5105C8F4809149038F7057
:1020D00080618093490386E0829FF001839FF00D29
:1020E0001124E75EFC4F80818F708061808384E4DF
:1020F00093E00E94120CCF910C94ED0F2F5F3F4F95
:102100002770B8CFCF910895CF92DF92EF92FF92D0
:102110000F931F93CF93DF93CDB7DEB762970FB6C0
:10212000F894DEBF0FBECDBF8C0185E0F801DE0163
:102130001D9601900D928A95E1F7D8014C91119668
:102140005C91119712966C9112971396ED90FC90FA
:10215000149770914403E091450320914703309117
:1021600048032115310531F0EF3F31F481E07F3F25
:1021700019F403C081E001C080E0B82FB170CB2E0C
:1021800080FD6CC1D0904603DD2009F4F5C0F091CC
:102190004903E216F30638F0C701821B930B883C13
:1021A000910548F09BC0209530952E0D3F1D283C91
:1021B000310508F093C08F2F807F09F052C0E513DE
:1021C00014C0741312C0D62E61110FC0FF70F061DD
:1021D000F09349030E940E1084E493E00E94120CD5
:1021E00080914903F80185836CC1EF2831F05F3F8E
:1021F00031F481E04F3F19F403C081E001C080E079
:1022000080FD03C081E0862701C080E0F82FF170D7
:10221000FF2E80FF1CC0809112032091130336E033
:10222000821709F428C190E0389FF001399FF00D22
:102230001124EC5EFC4F7181571306C07081471367
:1022400003C07281671303C001968770E9CFD62E51
:10225000662309F436C18091490381608093490364
:1022600053C0E51308C0741306C0611104C0D8013F
:102270001596FC93AEC04D875E878D859E856A8BD3
:102280000E94A90F6A89882329F1D62E662311F1AD
:1022900020914903822F82958F7090E002970CF471
:1022A00060C0809144039091450398878F8319867D
:1022B000FB86EA862C87CE01079651C0E51731F1DF
:1022C0004D875E878D859E856A8B0E94A90F6A89DE
:1022D00081112EC0C8010E94120CA4C08F2F807FD4
:1022E00069F77E2DF98AE88A89890E94CE0F84E4F5
:1022F00093E00E94120CE4E4F3E086E0DF011D921B
:102300008A95E9F70E940E10D12CDBC07413D8CF48
:102310006111D6CFD8011596FC93C8010E94120C0A
:10232000E4E4F3E086E0DF011D928A95E9F7C9C095
:10233000D62E662379F220914903822F82958F70E1
:1023400090E0029774F080914403909145039A8342
:1023500089831B82FD82EC822E83CE0101960E942E
:10236000120C86E0F801A4E4B3E001900D928A9586
:10237000E1F70E941C106FC0E216F30628F0C701B7
:10238000821B930B9C0104C0209530952E0D3F1DA0
:10239000283C310508F052C0D62E662309F49ACFA6
:1023A000E5132CC074132AC08091490380FD1DC021
:1023B000982F92959F70C9F0D80115968C93159718
:1023C0009F3039F09F5F9295907F8F70892B159683
:1023D0008C93C8010E94120C86E0F801A4E4B3E0DB
:1023E00001900D928A95E1F736C086E0F801A4E4E9
:1023F000B3E001900D928A95E1F763C04D875E8747
:102400008D859E850E94A90F882379F086E0F801CA
:10241000A4E4B3E001900D928A95E1F70E941C10AC
:102420000E940E10DD24D3944CC08091490381603A
:1024300080934903C8010E94120C43C07E2DF98A83
:10244000E88A89890E94CE0FE4E4F3E086E0DF01A8
:102450001D928A95E9F70E940E1033C0662309F495
:1024600039CF4D875E878D859E850E94A90F882371
:1024700009F430CFCBCF4D875E878D859E850E9436
:10248000AC14292F22952F7030E0223031052CF426
:102490009F7041F0811106C00CC0243031052CF42E
:1024A0009F7049F4805E883020F0C8010E94120CB1
:1024B000CF2CDC2C06C0D80115969C91907F91F70B
:1024C000F8CF8D2D62960FB6F894DEBF0FBECDBF4C
:1024D000DF91CF911F910F91FF90EF90DF90CF9000
:1024E00008951F93CF93DF93CDB7DEB72C970FB628
:1024F000F894DEBF0FBECDBF4F83588769877A87B8
:102500008B879C87CE0107960E9484108823C1F098
:102510002F8138858A859B85892B31F03F3F11F0CB
:1025200080E003C02F3FE1F781E0811147C04F8178
:10253000588569857A858B859C850E94DD0F3EC014
:1025400086E0FE013796DE01119601900D928A9584
:10255000E1F7FF81E8854A855B854115510531F03A
:10256000EF3F31F481E0FF3F19F403C081E001C087
:1025700080E080FD23C02091130330E0C901019663
:10258000877099276091120370E086179707F1F121
:10259000F983EA835D834C8396E0929FD001939FF9
:1025A000B00D1124AC5EBC4FFE01319601900D922E
:1025B0009A95E1F7809313030E94ED0F16E0809146
:1025C000120390911303891779F1189FC001112408
:1025D0008C5E9C4F0E948410882331F1E09112039D
:1025E0001E9FF0011124EC5EFC4F408151816281FD
:1025F0007381848195810E94DD0F8091120390E0A8
:1026000001968770992780931203D9CF0E94A50F56
:102610001092130310921203E4E4F3E086E0DF016A
:102620001D928A95E9F7CACF2C960FB6F894DEBFB3
:102630000FBECDBFDF91CF911F910895DF92EF9232
:10264000FF920F931F93CF93DF93FC01009709F440
:102650008AC0E12CF12CDD24D394EF0121968491E2
:10266000853709F461C058F4843708F04EC08430CF
:1026700008F06AC08130D1F0823071F174C08837BF
:1026800009F45DC050F4863709F455C0873709F066
:102690006AC08E2D0E94611654C09CE7980F903737
:1026A00008F061C08F770E94B50B50C08F010E5F9C
:1026B0001F4FFE01849190E2980F983050F487707C
:1026C000FD2D01C0FF0F8A95EAF78F2F0E94671634
:1026D00015C00E94E20A14C08F010E5F1F4FFE0159
:1026E000849190E2980F983068F48770FD2D01C0B6
:1026F000FF0F8A95EAF78F2F0E946D160E948516AC
:10270000E80124C00E94B50BFBCF9F012E5F3F4F15
:10271000FE01C491CC2369F08FE99FE00197F1F7A6
:1027200000C00000C150F6CF9F012E5F3F4FFE0159
:10273000F490E9010BC00E945116E82E07C00E94D8
:1027400064160E94851602C00E94E20A9F2D9923FA
:1027500041F0EFE9FFE03197F1F700C00000915040
:10276000F6CFFE017ACFDF91CF911F910F91FF90AD
:10277000EF90DF90089560934E0370934F03809322
:102780005003909351030E9498220C94930F6093EE
:102790004A0370934B0380934C0390934D030E9424
:1027A000F0220C94930F08950C94BB130F931F9376
:1027B00000914E0310914F0320915003309151032B
:1027C000602B712B822B932B1F910F910C94BB13B9
:1027D0000F931F9300914E0310914F0320915003CC
:1027E0003091510360237123822393231F910F9112
:1027F0000C94BB130F931F9300914E0310914F0342
:10280000209150033091510360277127822793272D
:102810001F910F910C94BB1360E070E0CB010C94FE
:10282000C71341E050E060E070E004C0440F551F62
:10283000661F771F8A95D2F7CB01BA010C94C71394
:1028400041E050E060E070E004C0440F551F661F97
:10285000771F8A95D2F780914A0390914B03A091FC
:102860004C03B0914D03482B592B6A2B7B2BCB018A
:10287000BA010C94C71341E050E060E070E004C07E
:10288000440F551F661F771F8A95D2F740955095C4
:102890006095709580914A0390914B03A0914C03F1
:1028A000B0914D03482359236A237B23CB01BA01FE
:1028B0000C94C71341E050E060E070E004C0440FA6
:1028C000551F661F771F8A95D2F780914A03909112
:1028D0004B03A0914C03B0914D03482759276A2719
:1028E0007B27CB01BA010C94C7130F931F93009160
:1028F0004A0310914B0320914C0330914D03602B00
:10290000712B822B932B1F910F910C94C7130F9354
:102910001F9300914A0310914B0320914C03309177
:102920004D0360237123822393231F910F910C94F5
:10293000C7130F931F9300914A0310914B032091EB
:102940004C0330914D0360277127822793271F91F5
:102950000F910C94C7130895CF92DF92EF92FF92DC
:102960000F931F93CF93DF93EC01C0904E03D09051
:102970004F03E0905003F090510380914A039091EF
:102980004B03A0914C03B0914D03C82AD92AEA2ADF
:10299000FB2A0FE110E0B701A601002E04C07695D6
:1029A0006795579547950A94D2F740FF07C0BE0137
:1029B000802F0E945D188130910539F40150110972
:1029C00050F7BE0180E00E945D18DF91CF911F910A
:1029D0000F91FF90EF90DF90CF900895CF92DF920C
:1029E000EF92FF920F931F93CF93DF93F82E809176
:1029F0000B018823E9F080910C018823C9F08F2D09
:102A00008695869586958F3008F0A4C0E0910D01DB
:102A1000F0910E01E80FF11D8F2D877021E030E05D
:102A200001C0220F8A95EAF78181822B818392C0AF
:102A3000E090650340916303E0910D01F0910E0178
:102A4000442309F472C0209164038E2D3FEF06E009
:102A500010E0A82FBB27A7FDB095EF01CA0FDB1F21
:102A60009A819F1509F476C03F3F19F4911101C076
:102A7000382FCD010196C6E0D0E0B8010E948A242B
:102A80008213E7CF2E1151C03F3F71F4822F992757
:102A900087FD90950196BE010E948A24809365036C
:102AA00041504093630341C0832F992787FD909540
:102AB0000196BE010E948A24EE24E394C6E0D0E091
:102AC000082F112707FD10956F01C00ED11ED601EA
:102AD00012966C916623A1F0432F552747FD509520
:102AE000CF01840F951FDC0112966C93D6011296CC
:102AF0001C92CA010196BE010E948A24382F01C08F
:102B0000E394C8010196BE010E948A248213D8CFA3
:102B1000822F992787FD90958E199109069666E078
:102B200070E00E948A248093640320916403332719
:102B300027FD3095E20FF31FF282C901019666E08E
:102B400070E00E948A2480936403809163038F5F06
:102B500080936303DF91CF911F910F91FF90EF90CE
:102B6000DF90CF900895DF92EF92FF920F931F9323
:102B7000CF93DF93482F80910B018823F1F0809150
:102B80000C018823D1F0842F8695869586958F3009
:102B900008F071C0E0910D01F0910E01E80FF11DF8
:102BA000477021E030E0042E01C0220F0A94EAF7BA
:102BB00020958181282321835EC0E0916503D09018
:102BC0006303DD2009F457C0C0910D01D0910E01BF
:102BD00000916403112707FD109586E0E82EF12C83
:102BE000F0E0DE01AE0FBF1F9D012E5F3F4F12963A
:102BF0008C91841336C0D9011C92DA94D09263036D
:102C0000D11004C0109265031092640320916403F4
:102C1000822F992787FD9095059666E070E00E94C7
:102C20008A24E817F90739F540916503E6E0F0E0FA
:102C3000822F992787FD90950596BF010E948A24CF
:102C40009C010596BF010E948A248C0F9D1FDC0108
:102C500012968C91811102C02413EACF2093640351
:102C60000AC0CF010196B7010E948A24E82F80177D
:102C7000910709F0B5CFDF91CF911F910F91FF9090
:102C8000EF90DF90089581E090E0E0910D01F091E8
:102C90000E01E80FF91F1082019680319105A9F706
:102CA000089580916703089590916703982B9093FE
:102CB0006703089580959091670398239093670325
:102CC0000895809367030895109267030895909183
:102CD0006603982B90936603089580959091660300
:102CE0009823909366030895109266030895809345
:102CF0005203089510925203089580910C0181119E
:102D000003C08091630308950895E0910D01F0914F
:102D10000E01809167038083E0910D01F0910E0117
:102D2000808190916603892B80839091520399232F
:102D300061F0E0910D01F0910E018081892B80837B
:102D40000E947D1681111092520380910D01909185
:102D50000E010C949209089508958091A403843083
:102D600019F11092690320E488E190E00FB6F8941D
:102D7000A895809360000FBE209360000E94231FDF
:102D800083B7817F846083BF83B7816083BF78947A
:102D9000889583B78E7F83BF88E10FB6F8948093C0
:102DA0006000109260000FBE089508950895CF93BB
:102DB0000E94D5160E94B5010E94D616C0E08C2F45
:102DC0000E94A102892B29F4CF5FC530C1F780E0B2
:102DD00001C081E0CF9108950E94A50F0C94EB20D3
:102DE0001F920F920FB60F9211248F939F93AF9360
:102DF000BF9380916903811113C080916A03909100
:102E00006B03A0916C03B0916D034196A11DB11DA0
:102E100080936A0390936B03A0936C03B0936D034C
:102E2000BF91AF919F918F910F900FBE0F901F9008
:102E3000189582E084BD93E095BD9AEF97BD80938D
:102E40006E0008952FB7F89480916A0390916B03F8
:102E5000A0916C03B0916D032FBF0895CF92DF92C4
:102E6000EF92FF920F931F932FB7F89440916A034C
:102E700050916B0360916C0370916D032FBF6A01D9
:102E80007B01EE24FF248C0120E030E0C016D10647
:102E9000E206F30610F441505109481B590BCA01D0
:102EA0001F910F91FF90EF90DF90CF9008951F92A8
:102EB0000F920FB60F9211248F939F93AF93BF93EE
:102EC00080916A0390916B03A0916C03B0916D03A4
:102ED0000196A11DB11D80936A0390936B03A0938B
:102EE0006C03B0936D03BF91AF919F918F910F9041
:102EF0000FBE0F901F9018950E94EA06F8942FEFCE
:102F000087EA91E6215080409040E1F700C0000040
:102F100087E090EBDC018093AF039093B003A09324
:102F2000B103B093B2032CE088E190E00FB6F894BF
:102F3000A895809360000FBE20936000FFCF8D3B6B
:102F400060F4883A80F5853A28F5843008F58130B8
:102F500009F06BC081E090E00895883E98F4803ECF
:102F6000B8F48F3B09F061C00E94A50F2FEF80E7F6
:102F700092E0215080409040E1F700C000000E94A4
:102F80007C1753C0803F08F450C090E090650895CE
:102F900090E00895853A09F44BC0863A09F04BC099
:102FA00082E890E40895883A09F448C0893A09F41F
:102FB00048C08A3A09F448C08B3A09F448C08C3AB0
:102FC00009F448C08D3A09F448C08E3A09F448C063
:102FD0008F3A09F448C0813B09F448C0803B09F4AA
:102FE00048C0823B09F448C0833B09F448C0843B95
:102FF00009F448C0853B09F448C0863B09F448C041
:10300000873B09F448C0883B09F448C0893B09F470
:1030100048C08A3B09F448C08B3B09F448C08C3B4C
:1030200009F048C08AE296E4089580E090E00895AF
:1030300081E890E4089583E890E4089582EE94E4B2
:10304000089589EE94E408958AEE94E4089585EB5A
:1030500094E4089586EB94E4089583EB94E4089552
:1030600084EB94E4089587EB94E408958CEC94E465
:1030700008958DEC94E4089583E895E408958AE832
:1030800095E4089582E995E4089584E995E4089526
:1030900081E296E4089583E296E4089584E296E45A
:1030A000089585E296E4089586E296E4089587E21D
:1030B00096E4089580E094E408950E946A01803EB9
:1030C000A8F4803C00F5813309F45CC038F48932FF
:1030D00009F452C08A3209F45BC05FC08933B1F091
:1030E0008238A1F0853309F441C057C0833E41F1D5
:1030F00028F4803E99F0823EB9F04FC0863E31F10F
:10310000873E71F14AC00E94790108959091AD0304
:1031100090FD02C091FF41C080EE3FC08091AD03A1
:1031200080FFFACF89E339C08091AD0382FF0CC0E4
:103130008091AD0384FF02C080E02FC083EE2DC0DC
:103140008091AD0382FFF4CF82EE27C08091AD0362
:1031500083FF0AC08091AD0384FDEECF87EE1DC0D2
:103160008091AD0383FFF6CF86EE17C08091AD034B
:1031700085FF06C089E211C08091AD0385FFFACFBB
:1031800085E30BC08091AD0386FF06C08AE205C0CF
:103190008091AD0386FFFACF81E30E949F170895C7
:1031A00080E090E008950895BF92CF92DF92EF9271
:1031B000FF920F931F93CF93DF938C01B12CEE24DA
:1031C000E394F12C8B2D0E94A1026C01C0E0D0E0B1
:1031D00097010C2E02C0220F331F0A94E2F72C2114
:1031E0003D21232BB1F06C2F7B2D80E00E945D18D8
:1031F0009C018017910759F0832F807E932F907C3C
:1032000011F0803A31F430E02017310711F481E0F9
:1032100009C02196CE30D105D9F6B39485E0B81215
:10322000D1CF80E0DF91CF911F910F91FF90EF9070
:10323000DF90CF90BF900895CF93DF93EC018CE2A5
:1032400090E00E94D418882329F0CE01DF91CF911D
:103250000C94D41880E0DF91CF910895CF930E9411
:103260009A1A811102C00E94751AC5E6C15049F030
:103270000E94B5018FE39CE90197F1F700C00000BF
:10328000F5CF89E290E00E941C1981112CC18AE2DD
:1032900090E00E941C19882321F00E94941A0E9439
:1032A000751A85E090E00E941C1981110E947C171C
:1032B0000E94AC160E94A51A8093680387E090E0F4
:1032C0000E941C198823B1F18BE190E00E941C1927
:1032D000882351F09091680391FB882780F921E0C1
:1032E000822780FB91F924C08EE090E00E941C1997
:1032F000882351F09091680392FB882780F921E0A0
:10330000822780FB92F914C080E190E00E941C1992
:1033100090916803882341F093FB882780F921E08E
:10332000822780FB93F904C0892F809580FB90F958
:1033300090936803809168030E94A91A0E94B71AAB
:103340008093AD0380EE90E00E941C19882341F029
:103350008091AD03982F909590FB80F98093AD03F9
:1033600089E390E00E941C19882359F09091AD03E5
:1033700091FB882780F921E0822780FB91F99093C7
:10338000AD0382EE90E00E941C19882359F09091C1
:10339000AD0392FB882780F921E0822780FB92F918
:1033A0009093AD0386EE90E00E941C19882359F09B
:1033B0009091AD0393FB882780F921E0822780FB61
:1033C00093F99093AD0383EE90E00E941C1988233B
:1033D00059F09091AD0394FB882780F921E0822772
:1033E00080FB94F99093AD0385E390E00E941C1953
:1033F000882359F09091AD0395FB882780F921E04F
:10340000822780FB95F99093AD0381E390E00E94C1
:103410001C19882359F09091AD0396FB882780F9F9
:1034200021E0822780FB96F99093AD0381E190E043
:103430000E941C19882359F09091AD0397FB8827AF
:1034400080F921E0822780FB97F99093AD0380916A
:10345000AD030E94BB1A8091AD0387FB882780F9DA
:1034600080930C0187E290E00E941C19C82F8EE126
:1034700090E00E941C198111C2608FE190E00E94CF
:103480001C198111C46080E290E00E941C19811116
:10349000C86081E290E00E941C198111C06182E243
:1034A00090E00E941C198111C06283E290E00E94AA
:1034B0001C198111C06484E290E00E941C198823C9
:1034C00011F0C06802C0CC2329F08C2F0E94B21AE0
:1034D0006C2F03C00E94AE1A682F70E080E090E06D
:1034E000CF910C94D413CF9108956DEE7EEF80E0D0
:1034F00090E00E94D42460E082E090E00E94C62424
:1035000060E083E090E00E94C62460E084E090E008
:103510000E94C62460E085E090E00E94C62460E03E
:1035200086E090E00C94C6246FEF7FEF80E090E09F
:103530000C94D42480E090E00E94C02421E08D3ED1
:103540009E4F09F020E0822F089582E090E00C94D5
:10355000B824682F82E090E00C94C62483E090E0C9
:103560000C94B824682F83E090E00C94C62484E087
:1035700090E00C94B824682F84E090E00C94C6246A
:1035800086E090E00C94B824682F86E090E00C94DC
:10359000C6248091700380FF0BC06091120185E00A
:1035A000689FB001112475956795759567952AC038
:1035B00081FF09C06091120185E0689FB00111246C
:1035C000759567951FC082FF07C06091120185E065
:1035D000689FB001112416C0409171034423C9F0C3
:1035E00060911101461788F72091120185E0289F0C
:1035F00090011124429FC001439F900D112470E05F
:103600000E948A246038710540F46115710539F013
:1036100002C065E070E0862F08958FE7089581E08D
:1036200008958091700380FF08C06091100170E0E0
:10363000759567957595679521C081FF06C0609166
:10364000100170E07595679519C082FF04C0609104
:10365000100170E010C0809171038823C1F0609167
:103660000F018617A0F790911001989FC0011124B7
:1036700070E00E948A246038710528F46115710594
:1036800021F0862F08958FE7089581E0089561E085
:1036900070E0F4CF803F21F40E94C91A819504C0E4
:1036A000813F29F40E94C91A809374030895823FD0
:1036B00021F40E94C91A819504C0833F29F40E9415
:1036C000C91A809373030895893F19F40E94111B4E
:1036D00005C08A3F31F40E94111B819580937503C8
:1036E00008958B3F21F40E94111B819504C08C3FEB
:1036F00029F40E94111B809376030895843F21F4DE
:1037000080917203816017C0853F21F4809172031C
:10371000826011C0863F21F48091720384600BC0E7
:10372000873F21F480917203886005C0883F31F49F
:103730008091720380618093720308958D3F21F41C
:103740008091700381600BC08E3F21F480917003E3
:10375000826005C08F3F29F480917003846080935C
:1037600070030895803F39F48091740387FF6CC023
:103770001092740369C0813F29F480917403181674
:10378000BCF362C090917303823F29F497FF5CC041
:103790001092730359C0833F19F41916CCF354C027
:1037A000893F41F48091750318160CF04DC01092BA
:1037B00075034AC08A3F29F48091750387FF44C08E
:1037C000F6CF8B3F39F48091760387FF3DC010928E
:1037D00076033AC08C3F29F4809176031816BCF327
:1037E00033C0843F21F4809172038E7F17C0853FE0
:1037F00021F4809172038D7F11C0863F21F4809166
:1038000072038B7F0BC0873F21F480917203877F07
:1038100005C0883F31F4809172038F7E80937203DC
:1038200013C08D3F21F4809170038E7F0BC08E3FBB
:1038300021F4809170038D7F05C08F3F29F4809122
:1038400070038B7F809370038091730381110EC08E
:103850008091740381110AC080917503811106C0A3
:1038600080917603811102C010927103089582E75E
:1038700093E00E949D090E94221790936F0380930A
:103880006E0308951F93CF93DF9380916E03909101
:103890006F030E942E1740917103442321F0209161
:1038A000130130E006C0209114015AE0259F9001D9
:1038B00011248217930708F482C08091730310913A
:1038C0007403D0917503C0917603811107C0111163
:1038D00005C0D11103C0CC2309F471C04F3F19F0CA
:1038E0004F5F40937103181624F40E94C91A809305
:1038F00073038091730387FF05C00E94C91A8195E5
:1039000080937303111624F40E94C91A80937403E0
:103910008091740387FF05C00E94C91A8195809326
:10392000740360917303662339F1109174031123BA
:1039300019F1772767FD7095872F972F0E949B239A
:1039400023E333E343E35FE30E94FF230E94682302
:1039500060937303612F772767FD7095872F972FEB
:103960000E949B2323E333E343E35FE30E94FF23AF
:103970000E946823609374031D1624F40E94111B97
:10398000809375038091750387FF05C00E94111B0A
:103990008195809375031C1624F40E94111B80935B
:1039A00076038091760387FF05C00E94111B8195E5
:1039B00080937603DF91CF911F910C94371CDF9198
:1039C000CF911F910895E2E7F3E085E0DF011D92BA
:1039D0008A95E9F71092710310927003089583306D
:1039E00081F128F4813059F08230D1F0089585308A
:1039F00009F449C0B8F1863009F456C00895209101
:103A00001401862F90E0820F911D8F3F910520F4C5
:103A1000620F6093140108958FEF8093140108954D
:103A200020911301862F90E0820F911D8F3F910509
:103A300020F4620F6093130108958FEF80931301B8
:103A4000089520911201862F90E0820F911D8F3FE3
:103A5000910520F4620F6093120108958FEF809317
:103A60001201089520911101862F90E0820F911D7F
:103A70008F3F910520F4620F6093110108958FEF3D
:103A800080931101089520911001862F90E0820FFC
:103A9000911D8F3F910520F4620F609310010895EE
:103AA0008FEF80931001089520910F01862F90E0F1
:103AB000820F911D8F3F910520F4620F60930F01DB
:103AC00008958FEF80930F010895833011F128F44A
:103AD000813049F0823091F00895853081F120F1F4
:103AE0008630C1F1089580911401681720F4861B77
:103AF0008093140108951092140108958091130188
:103B0000681720F4861B8093130108951092130107
:103B1000089580911201681720F4861B809312018A
:103B2000089510921201089580911101681720F4F0
:103B3000861B8093110108951092110108958091C0
:103B40001001681720F4861B8093100108951092CD
:103B50001001089580910F01681720F4861B80934F
:103B60000F01089510920F0108958B3109F46DC073
:103B700000F58E3009F473C068F4873009F458C03A
:103B800018F48630E9F133C0883099F18B3009F4AC
:103B9000A2C02DC0813109F47DC020F4803109F428
:103BA00068C025C0863109F496C0893109F493C0F4
:103BB0001EC0853309F477C060F4873209F473C0FE
:103BC00020F48E3108F074C012C0893209F46BC041
:103BD0000EC0833438F48A3308F06CC0883309F49B
:103BE0007AC005C0833409F45EC0883499F080E05F
:103BF00008950E94A51A0E94B71A0E94C01A6BC0AD
:103C000080916803817F8E7F8093680381E0809339
:103C1000780308950E94A50F2FEF83ED90E32150C4
:103C200080409040E1F700C000000E947C1753C024
:103C300090916803892F817090FF03C0917F9E7FD0
:103C400026C091609093680346C09091680391FBF1
:103C5000882780F921E0822780FB91F913C0909199
:103C6000680392FB882780F921E0822780FB92F984
:103C700009C09091680393FB882780F921E082278F
:103C800080FB93F990936803882329F191609093C6
:103C9000680308950E94A50F80910C0191E0892787
:103CA00080930C0118C061E070E080E090E00FC0EC
:103CB00023EE01C027EC280F61E070E080E090E087
:103CC00004C0660F771F881F991F2A95D2F70E949C
:103CD000D4130E94A50F81E0089580E0089580E04C
:103CE0000895CF93C82F80917803813069F018F040
:103CF0008230B1F181C0A0910D01B0910E018C9183
:103D0000823209F07BC007C0A0910D01B0910E0175
:103D10008C91823249F48C2F0E946D1E81111DC03E
:103D20008C2F0E94B51D1AC08C2F0E946F1E81110E
:103D300014C0C43179F048F4CB3079F0C03109F0C7
:103D400061C082E08093780308C0C93219F0C8339B
:103D500021F058C01092780355C081E0817054C0A2
:103D6000C93291F120F5C43179F1B0F4C73009F0CE
:103D700047C08EE18093140182E3809313018AE0AF
:103D80008093120184E18093110188E080931001F7
:103D900088E280930F0134C0CE51C63088F5EC2FF5
:103DA000F0E0E153FD4F80818093770329C0CE344A
:103DB000E9F020F4CB3421F56AE013C0C13579F085
:103DC000C235F1F461E00DC080917703882319F0CA
:103DD0001092770315C081E08093780315C061E0ED
:103DE00006C0809177030E94EF1C0AC06AE08091B0
:103DF00077030E94651D04C01092780380E004C020
:103E000081E002C080E0AACFCF910895E1E8F0E020
:103E10008081886080838081816080838FB7F894FF
:103E200093E09093890090ED909388008FBF0C945D
:103E30004823EFE6F0E080818260808381E0809318
:103E400099030C946323CF9380916F008D7F8093AF
:103E50006F0010929903C0E08C2F0E945623CF5F11
:103E6000C530D1F780919903CF910C946323809151
:103E700098038F61809398030895CF9310929803CD
:103E8000C0E08C2F0E945623CF5FC530D1F78091C0
:103E90009903CF910C946323E82FF0E0E257FC4F95
:103EA00060830895E82FF0E0E257FC4F4081242F13
:103EB00030E08FEF90E0861B9109821793071CF486
:103EC0008FEF80830895640F60830895CF93DF930D
:103ED000D82FC0E06D2F8C2F0E94521FCF5FC530AE
:103EE000C9F7DF91CF910895E82FF0E0E257FC4F3A
:103EF0008081861710F410820895861B80830895B0
:103F0000CF93DF93D82FC0E06D2F8C2F0E94741FAA
:103F1000CF5FC530C9F7DF91CF91089580918D03B0
:103F20008F6180938D03089510928D030895909171
:103F30008C0321E030E0082E01C0220F0A94EAF73A
:103F4000662311F0292B02C02095292320938C038E
:103F50000895CF93DF93D82FC0E06D2F8C2F0E9450
:103F6000971FCF5FC530C9F7DF91CF910895809338
:103F70008B0308958093860380938703809388033F
:103F80008093890380938A030895809185038F61CC
:103F900080938503089510928503109284030895F9
:103FA0008093830308951F920F920FB60F921124EE
:103FB000EF92FF920F931F932F933F934F935F9333
:103FC0006F937F938F939F93AF93BF93CF93DF9321
:103FD000EF93FF9380917C038F5F80937C0303E9D1
:103FE00013E0C0E0D0E0FC2E2091980330E00C2ECE
:103FF00002C0369527950A94E2F720FF1AC08091F7
:104000007C0381110DC0F8018081882319F08C2F69
:104010000E944923FE01E257FC4F8081F801808312
:1040200090917C03F8018081981303C08F2D0E942A
:10403000562321960F5F1F4FC530D105A1F6809101
:104040007B038F5F80937B03803408F4ADC01092B4
:104050007B03E0908D03E11005C0F0908503F11023
:104060003BC0A2C080917A038F5F80937A039091C6
:104070008B03981790F710927A0306E813E0C0E0DC
:10408000D0E0F12CC7010C2E02C0969587950A94BA
:10409000E2F780FF1AC0F8018081882319F081506F
:1040A000808313C080918C0390E00C2E02C0969503
:1040B00087950A94E2F761E080FF04C08C2F0E948C
:1040C000741F03C08C2F0E94521F21960F5F1F4F39
:1040D000C530D105B9F6C1CF809179038F5F809348
:1040E000790390918303981708F05EC010927903CA
:1040F00010917D0300918403AEE7B3E080E090E08F
:1041000041E050E02F2D30E0082E02C03695279573
:104110000A94E2F720FF3CC06C91E62FF0E0E853F0
:10412000FE4FE491EC01C257DC4FE883212F30E0D1
:10413000082E02C0369527950A94E2F73C9120FF9D
:104140001AC0611115C0BA01082E01C0660F0A9489
:10415000EAF760951623202F30E0082E02C036952E
:1041600027950A94E2F720FF13C00623F62210C019
:1041700061506C930DC06F3741F49A01082E01C055
:10418000220F0A94EAF7122B03C021E0230F2C938D
:10419000019611968530910509F0B4CFF092850310
:1041A00010937D0300938403FF91EF91DF91CF91F2
:1041B000BF91AF919F918F917F916F915F914F913F
:1041C0003F912F911F910F91FF90EF900F900FBE95
:1041D0000F901F9018950E949A1A811102C00E9498
:1041E000751A0E94C01A8093AE0380FF02C08695A4
:1041F00001C080E00C94AB028091AE0380FF14C03C
:10420000982F9695292F30E02830310544F49F5F90
:10421000990F8170892B8093AE030E94C41A8091FC
:10422000AE0386950C94AB0208958091AE0380FF97
:1042300014C0982F9695292F30E02230310544F094
:104240009158990F8170892B8093AE030E94C41AF4
:104250008091AE0386950C94AB0208958091AE03D5
:10426000982F9095917090FB80F98093AE039923DD
:1042700039F0982F9E7F21F4817082608093AE0385
:104280008091AE030E94C41A8091AE0380FF02C0E9
:10429000869501C080E00C94AB023091AE03232FD1
:1042A00026952F5F2F77822F90E0317009972CF49D
:1042B000220F232B2093AE0302C03093AE038091D4
:1042C000AE038E7F91E009F490E08091AE0390FB05
:1042D00080F98093AE030E94C41A8091AE03869544
:1042E0000C94AB02880F9091AE039170982B909331
:1042F000AE039E7F21E009F420E08091AE0320FB15
:1043000080F98093AE030E94C41A8091AE03869513
:104310000C94AB02EF92FF920F931F93CF93DF9316
:10432000F82EE62E0091A0030827611101C0E1F1EB
:10433000C0E0D0E010E08C2F9C2F2091980330E05B
:104340000C2E02C0369527950A94E2F720FF0BC089
:1043500020919C0330E00C2E02C0369527950A94DC
:10436000E2F720FD1BC0E11009C09801092E02C030
:10437000369527950A94E2F720FF10C020919B0301
:104380002F2530E002C0369527959A95E2F720FF59
:1043900003C00E94420302C00E9459032196C53007
:1043A000D10549F6F092A003DF91CF911F910F91B3
:1043B000FF90EF9008950F931F93CF93DF93C0E08A
:1043C000D0E001E010E08C2F0E94300396FF0BC07C
:1043D00080919A0398010C2E01C0220F0A94EAF7EB
:1043E000822B80939A0394FF0BC080919B039801CA
:1043F0000C2E01C0220F0A94EAF7822B80939B03B4
:1044000095FF0BC080919C0398010C2E01C0220FD8
:104410000A94EAF7822B80939C039F70892F90E087
:104420008230910589F083309105D1F0813091057A
:1044300011F50C2E01C0880F0A94EAF790919E03A3
:10444000982B90939E0317C020919D03C8010C2EBA
:1044500001C0880F0A94EAF7282B20939D030BC014
:1044600020919F03C8010C2E01C0880F0A94EAF71F
:10447000282B20939F032196C530D10509F0A3CFA7
:104480000E94390361E080E0DF91CF911F910F918D
:104490000C948A21CF92DF92EF92FF920F931F9399
:1044A000CF93DF9390919F039923C9F1D090A003FC
:1044B000C0E0D0E0E82EF12C01E010E020919F0355
:1044C00030E08C2F0C2E02C0369527950A94E2F727
:1044D00020FF15C00E943003970102C03595279533
:1044E0008A95E2F7C90198010C2E01C0220F0A94A7
:1044F000EAF780FF02C0D22A02C02095D22221967C
:10450000C530D105D9F660E08D2DDF91CF911F9197
:104510000F91FF90EF90DF90CF900C948A21DF9164
:10452000CF911F910F91FF90EF90DF90CF90089562
:10453000AF92BF92CF92DF92EF92FF920F931F93B1
:10454000CF93DF936B017C0180919E038823E9F177
:10455000B090A003C0E0D0E001E010E020919E0305
:1045600030E00C2E02C0369527950A94E2F720FF22
:104570001AC08C2F0E943003A701960104C05695E3
:104580004795379527958A95D2F7DA01C9019801A1
:104590000C2E01C0220F0A94EAF780FF02C0B22A53
:1045A00002C02095B2222196C530D105B9F660E04F
:1045B0008B2DDF91CF911F910F91FF90EF90DF90A6
:1045C000CF90BF90AF900C948A21DF91CF911F9133
:1045D0000F91FF90EF90DF90CF90BF90AF90089534
:1045E000AF92BF92CF92DF92EF92FF920F931F9301
:1045F000CF93DF936B017C0180919D038823E9F1C8
:10460000B090A003C0E0D0E001E010E020919D0355
:1046100030E00C2E02C0369527950A94E2F720FF71
:104620001AC08C2F0E943003A701960104C0569532
:104630004795379527958A95D2F7DA01C9019801F0
:104640000C2E01C0220F0A94EAF780FF02C0B22AA2
:1046500002C02095B2222196C530D105B9F660E09E
:104660008B2DDF91CF911F910F91FF90EF90DF90F5
:10467000CF90BF90AF900C948A21DF91CF911F9182
:104680000F91FF90EF90DF90CF90BF90AF90089583
:10469000089520919C0330E0082E02C0369527959E
:1046A0000A94E2F720FD0C944203089520919C03A4
:1046B00030E0082E02C0369527950A94E2F720FDD7
:1046C0000C945903089561E08091A0030C948A2111
:1046D00004D06894B1118DC0089570D088F09F57B0
:1046E00090F0B92F9927B751A0F0D1F0660F771F3E
:1046F000881F991F1AF0BA95C9F712C0B13081F01E
:1047000077D0B1E0089574C0672F782F8827B85FFD
:1047100039F0B93FCCF3869577956795B395D9F77E
:104720003EF490958095709561957F4F8F4F9F4F88
:104730000895E89409C097FB3EF490958095709594
:1047400061957F4F8F4F9F4F9923A9F0F92F96E9DD
:10475000BB279395F695879577956795B795F11152
:10476000F8CFFAF4BB0F11F460FF1BC06F5F7F4FEF
:104770008F4F9F4F16C0882311F096E911C0772301
:1047800021F09EE8872F762F05C0662371F096E80A
:10479000862F70E060E02AF09A95660F771F881FD9
:1047A000DAF7880F9695879597F9089557FD9058F1
:1047B000440F551F59F05F3F71F04795880F97FBE5
:1047C000991F61F09F3F79F087950895121613069F
:1047D0001406551FF2CF4695F1DF08C016161706CE
:1047E0001806991FF1CF8695710561050894089503
:1047F000E894BB2766277727CB0197F908950BD05C
:1048000078C069D028F06ED018F0952309F05AC00E
:104810005FC01124EECFCADFA0F3959FD1F3950FAF
:1048200050E0551F629FF001729FBB27F00DB11D34
:10483000639FAA27F00DB11DAA1F649F6627B00DC4
:10484000A11D661F829F2227B00DA11D621F739FAD
:10485000B00DA11D621F839FA00D611D221F749FBB
:104860003327A00D611D231F849F600D211D822F02
:10487000762F6A2F11249F5750408AF0E1F0882349
:104880004AF0EE0FFF1FBB1F661F771F881F915056
:104890005040A9F79E3F510570F014C0AACF5F3F6A
:1048A000ECF3983EDCF3869577956795B795F79589
:1048B000E7959F5FC1F7FE2B880F911D9695879511
:1048C00097F9089597F99F6780E870E060E0089590
:1048D0009FEF80EC089500240A9416161706180618
:1048E0000906089500240A941216130614060506F4
:1048F0000895092E0394000C11F4882352F0BB0F85
:1049000040F4BF2B11F460FF04C06F5F7F4F8F4FE7
:104910009F4F089597FB072E16F4009407D077FD5C
:1049200009D00E94A42407FC05D03EF490958195FF
:104930009F4F0895709561957F4F0895EE0FFF1F6B
:104940000590F491E02D0994AA1BBB1B51E107C00F
:10495000AA1FBB1FA617B70710F0A61BB70B881F0F
:10496000991F5A95A9F780959095BC01CD0108959E
:10497000F999FECF92BD81BDF89A992780B5089527
:10498000A8E1B0E042E050E00C94DB24262FF99936
:10499000FECF1FBA92BD81BD20BD0FB6F894FA9A22
:1049A000F99A0FBE019608950E94C624272F0C94F1
:1049B000C724DC01CB01FC01F999FECF06C0F2BD92
:1049C000E1BDF89A319600B40D9241505040B8F7CD
:0649D0000895F894FFCFEA
:1049D600057003FD03DA03A60373030101530328DD
:1049E60008140A321E404D36398F0242020C02D399
:1049F6000166017F019801B101040E0C50014001CE
:104A060032010C034F005200470036003000000010
:104A16000E036F00720061006E0067006500000003
:104A26000403090409026D00040100A03209040010
:104A360000010301010009211101000122400007C4
:104A460005810308000A09040100010301020009A7
:104A56002111010001224D000705820308000A0901
:104A660004020001030000000921110100012236A1
:104A7600000705830308000A090403000103000078
:104A860000092111010001223900070584031000E5
:104A9600011201100100000008EDFE606001000136
:104AA60002000105010906A101050719E029E7151C
:104AB600002501950875018102050819012905954A
:104AC60005750191029501750391010507190029E4
:104AD6007715002501957875018102C005010980C9
:104AE600A101850216010026B7001A01002AB700A7
:104AF600751095018100C0050C0901A101850316F9
:104B06000100269C021A01002A9C0275109501815B
:104B160000C005010902A1010901A1000509190149
:104B26002905150025019505750181029501750375
:104B360081010501093009311581257F9502750826
:104B4600810609381581257F950175088106050CB2
:104B56000A38021581257F950175088106C0C005B2
:104B6600010906A101050719E029E71500250195A8
:104B76000875018102950175088101050819012949
:104B860005950575019102950175039101050719B2
:104B96000029FF150026FF00950675088100C00153
:0A4BA60002030405060708090000D9
:00000001FF
