:100000000C942F010C9473010C9473010C947301E4
:100010000C9473010C9473010C9473010C94730190
:100020000C9473010C9473010C94AE070C9480082B
:100030000C9441170C9473010C9473010C9473018C
:100040000C9473010C9440200C9473010C94730174
:100050000C9473010C94A8170C9473010C94730105
:100060000C9473010C9473010C9473010C94730140
:100070000C9473010C9473010C9473010C94730130
:100080000C9473010C9473010C9473010C94730120
:100090000C9473010C9473010C9473010C94730110
:1000A0000C9473010C9473010C947301E008000923
:1000B000B8090009B80942096509B80987099A0908
:1000C000AA0CAA0CD80CD80C340D700DD50FD50F76
:1000D000880DD50F7F0E7F0E3B0F4F0FD50FC30F2F
:1000E000016202620162026200F1A100D200D1004D
:1000F000D001F001F101F201F301F401F5291E1F15
:1001000020212223242526272D2E2A2B141A0815D8
:10011000171C180C12132F303139041607090A0B5B
:100120000D0E0F33340028E1001D1B0619051110B8
:1001300036373800E5E0E3E200002C00000000E67E
:10014000E7C0E4353A3B3C3D3E3F404142434445F5
:100150004C010152010101010101010101010101F3
:1001600050514FC4C5C6C7C8C901010001010001F3
:1001700001C1C2C301A8AAA9010001010101000037
:10018000010000000001010101000000000000006A
:10019000000000000000000000000000000000005F
:1001A000000000000000000000000000000000004F
:1001B000000000000000000000000000000000003F
:1001C000000000000000000000000000000000002F
:1001D0001080FF0103002014800020002000000098
:1001E00000000000000000010101020202030304FC
:1001F0000405050606070808090A0B0B0C0D0E0F6F
:1002000010111213151617191A1B1D1E2022232553
:1002100027292B2D2F313335383A3D3F4244474A69
:100220004D505356595C5F6266696C7074777B7E83
:1002300082868A8E9195999DA1A5A9ADB0B4B8BCCE
:10024000C0C3C7CBCED2D5D8DBDFE2E4E7EAECEF20
:10025000F1F3F5F7F8FAFBFCFDFEFFFFFF001124B8
:100260001FBECFEFDAE0DEBFCDBF04B603FE24C071
:100270008091090490910A04A0910B04B0910C04A0
:100280008730904BA740B04BB9F4109209041092FC
:100290000A0410920B0410920C0414BE84B7877FDA
:1002A00084BF88E10FB6F8948093600010926000DC
:1002B0000FBEE0E0F8E3099512E0A0E0B1E0EEE463
:1002C000F4E502C005900D92AC3DB107D9F724E0EA
:1002D000ACEDB2E001C01D92A930B207E1F70E9477
:1002E00083050C94252A0C94000082ED90E008957B
:1002F0008AE090E00895611107C0FC0182818823A3
:1003000019F080EE90E0089580E090E008950F935A
:100310001F93CF93DF93EC01062F142F611117C0A9
:100320008A81882371F00E94A216827211F085E3FF
:1003300001C089E28093DC028091DC020E94330BD1
:1003400004C08091DC020E94060C0E94D6168A81AD
:100350008823B1F10130A1F51230F1F050F41123EE
:10036000A9F0113069F5DF91CF911F910F910C9495
:1003700008231430E9F0B0F0153011F561E08EE19A
:10038000DF91CF911F910F910C949823DF91CF9122
:100390001F910F910C940123DF91CF911F910F9129
:1003A0000C942423DF91CF911F910F910C943B2348
:1003B00061E08EE1DF91CF911F910F910C94872323
:1003C000DF91CF911F910F910895462F672F0C94C5
:1003D000F527805C0E94E92708958DEF90E008954D
:1003E00089EE90E008958AB1807D8AB98BB1807DD5
:1003F0008BB9089585E008958EE0089580E885BF63
:1004000085BF0E94F30180B38C7F80BB81B3836082
:1004100081BB6E98769A8AB18F728AB98BB1806DE2
:100420008BB987B18F7387B988B1806C88B984B173
:10043000847084B985B18B6F85B9E7EEF2E0ADEDDC
:10044000B2E0119211921D921D9282E0E13FF807F5
:10045000C1F70895FF920F931F93CF93DF93CDEDD4
:10046000D2E010E001E0A5E0FA2E123071F018F4AD
:10047000113041F004C0133059F0143061F0509A3B
:1004800058980BC0519A599808C0529A5A9805C06A
:10049000539A5B9802C0559A5D9880EA8A95F1F765
:1004A0008FB18170802790E0799B03C020E030E01D
:1004B00002C022E030E0822B932B669B03C020E039
:1004C00030E002C024E030E0822B932B26B13327AA
:1004D00027FD3095209530952227330F221F332793
:1004E000F3E0220F331FFA95E1F7822B932B369B13
:1004F00003C060E070E002C060E170E0862B972BE3
:100500001E9B03C060E070E002C060E270E0682BF8
:10051000792B4C9B03C020E030E002C020E430E0A7
:10052000262B372B199B03C040E050E002C040E867
:1005300050E0422B532B189B0DC083B1992787FDA8
:100540009095809590958827990F881F9927982FC7
:10055000882702C080E091E0842B952B1D9B03C06F
:1005600020E030E002C020E032E0822B932B1C9B85
:1005700003C020E030E002C020E034E0822B932B67
:1005800029B1332727FD3095209530952227330F49
:10059000221F3327322F2227330F330F330F822BA3
:1005A000932B4E9B03C020E030E002C020E030E1FE
:1005B000822B932B1B9B03C020E030E002C020E085
:1005C00030E2822B932B288139812817390721F0BB
:1005D00099838883F09200010E94F3011F5F2296A5
:1005E000153009F042CF809100018823C1F081507D
:1005F00080930001882339F08FE99FE00197F1F79C
:1006000000C000000CC0A7EEB2E0EDEDF2E0819179
:1006100091918D939D9392E0E73EF907C1F781E0B8
:10062000DF91CF911F910F91FF900895E82FF0E097
:10063000EE0FFF1FE951FD4F8081918108950895CC
:10064000CF93DF93C82F0E94861FC73088F4C43031
:1006500018F5C130D8F10E94A41F0E9401200E9409
:100660003820EC2FF0E0E153FE4FD491C0E00CC0F5
:10067000C730F1F0C83051F50E94A41F0E94FB1F43
:100680000E94382081E01BC06D2F8C2F0E94B91F63
:10069000CF5FC530C9F72AC00E94A41F0E94322034
:1006A0000E94012086E08C1BDF91CF910C943D20AD
:1006B0000E94A41F0E94FB1F0E94382080E00E941D
:1006C000162083E0DF91CF910C9424200E9401201A
:1006D0000E943820C0E060E08C2F0E94B91FCF5FDD
:1006E000C530C9F7DF91CF910C94AA1FDF91CF914C
:1006F00008951F93CF93DF9300D000D01F92CDB702
:10070000DEB7162F8091080480FF20C08E7F8E30C8
:1007100041F4662331F080E20E94272080E10E94AC
:10072000ED1F809108048E7F803181F4112371F0D8
:1007300080E20E94272080E10F900F900F900F9091
:100740000F90DF91CF911F910C94D31F0F900F90BA
:100750000F900F900F90DF91CF911F910895089502
:1007600008950895E82FF0E0EE0FFF1FED52FE4FC1
:10077000859194910895809101030895CF93DF931B
:1007800000D01F92CDB7DEB72091FE03243019F5BB
:1007900023E029839B838A832093E9008FEF909144
:1007A000E800815095FD06C095ED9A95F1F700009F
:1007B0008111F5CF8091E80085FF0DC040E050E049
:1007C00063E070E0CE0101960E9426068091E80069
:1007D0008E778093E8000F900F900F90DF91CF916C
:1007E0000895CF93DF9300D01F92CDB7DEB720914D
:1007F000FE03243021F522E029839B838A8383E052
:100800008093E9008FEF9091E800815095FD06C03C
:1008100095ED9A95F1F700008111F5CF8091E800F0
:1008200085FF0DC040E050E063E070E0CE0101962E
:100830000E9426068091E8008E778093E8000F9052
:100840000F900F90DF91CF9108952091FE032430F7
:10085000F1F422E02093E9002FEF3091E8002150DD
:1008600035FD06C035ED3A95F1F700002111F5CFC1
:100870002091E80025FF0BC040E050E065E070E00B
:100880000E9426068091E8008E778093E800089504
:10089000CF93DF93EC018091FE03843009F046C0D2
:1008A00090910B019923D9F090910C019923B9F003
:1008B0008093E9008FEF9091E800815095FD06C08C
:1008C00095E19A95F1F700008111F5CF8091E8004C
:1008D00085FF2CC040E050E060E170E017C081E08F
:1008E0008093E9008FEF9091E800815095FD06C05C
:1008F00095ED9A95F1F700008111F5CF8091E80010
:1009000085FF14C040E050E068E070E0CE010E9436
:1009100026068091E8008E778093E80080E1FE0152
:10092000A1EFB2E001900D928A95E1F7DF91CF91AE
:1009300008958091FD03811109C00E9435070E942E
:1009400090078091E20084608093E2000895109205
:10095000FD0308950895089542E061EC81E00E944E
:10096000D00642E061EC82E00E94D00642E061ECF9
:1009700083E00E94D00642E161EC84E00C94D00652
:1009800080910004833009F455C030F4813071F057
:10099000823009F48EC008958A3009F47AC08B3011
:1009A00009F460C0893009F09CC020C08091FF0329
:1009B000813A09F096C08091E800877F8093E80033
:1009C0008091030490910404892B21F060E080E081
:1009D00090E003C060E181EF92E070E00E946F065A
:1009E0008091E8008B778093E80008958091FF0361
:1009F000813209F076C0809103049091040400973D
:100A000019F0039709F06DC08091E800877F80930B
:100A1000E8008091E80082FD05C08091FE0381110D
:100A2000F8CF5FC08091F100809301038091E800CE
:100A30008B7753C08091FF03813A09F052C08091B7
:100A4000030490910404892B09F04BC08091E800C5
:100A5000877F8093E8008091E80080FFFCCF809141
:100A60000B0136C08091FF038132D9F580910304D8
:100A700090910404892BA9F58091E800877F8093E9
:100A8000E8000E94E4068091010480930B010C941D
:100A9000F60F8091FF03813221F58091E800877F76
:100AA0008093E8000E94E406809102048093020390
:100AB00008958091FF03813AA1F48091E800877F37
:100AC0008093E8008091E80080FFFCCF80910203D2
:100AD0008093F1008091E8008E778093E8000C9479
:100AE000E40608950895089508950C9474050E94ED
:100AF000FE168091FC03882329F00E94281781119B
:100B00000C941006089584B7877F84BF88E10FB6E0
:100B1000F89480936000109260000FBE90E080E82F
:100B20000FB6F89480936100909361000FBE0E940D
:100B300072050E94200A0E9435070E94900780914A
:100B4000E20084608093E20078948091FE03843018
:100B5000E1F70E94220A81E091E00E94CC090E9404
:100B600073058091FE03853019F40E947705F9CF53
:100B70000E94340AF6CF0C943D170C94BB05292F24
:100B800033272330310599F05CF421303105D9F158
:100B900022303105E9F58DE690E026E531E03CC0F4
:100BA0002132310599F022323105E9F031C099271F
:100BB0008330910568F5FC01EE0FFF1FE25DFE4FEB
:100BC00020813181FC01E55DFE4F1AC0643000F5E3
:100BD000E62FF0E0EE0FFF1FED5DFE4F208131812B
:100BE00089E090E019C0643098F4E62FF0E0DF016E
:100BF000AA0FBB1FA55EBE4F2D913C91E95EFE4F33
:100C0000808190E009C082E190E023EC31E004C0F3
:100C100080E090E020E030E0FA0131832083089505
:100C200080E189BD82E189BD09B400FEFDCF8091DC
:100C3000D8008F7D8093D8008091E00082608093FF
:100C4000E0008091E00081FDFCCF0895CF92DF921B
:100C5000EF92FF920F931F93CF93DF937C018B0151
:100C6000EA010E940507811131C0209731F0888187
:100C70009981081B190BE80EF91EC12CD12C011506
:100C8000110519F18091E80085FD14C08091E800FC
:100C90008E778093E800209741F0888199818C0DB0
:100CA0009D1D9983888385E011C00E9405078823D4
:100CB00031F30CC0F70181917F018093F100015065
:100CC0001109FFEFCF1ADF0ADACF80E0DF91CF9171
:100CD0001F910F91FF90EF90DF90CF90089520919A
:100CE0000504309106042617370748F06115710591
:100CF00039F42091E8002E772093E80001C0B90173
:100D0000FC0120E061157105B9F18091FE03882393
:100D100009F440C0853009F43FC08091E80083FDAC
:100D20003DC08091E80082FF06C08091E80082FF0C
:100D300026C080E008958091E80080FFE3CF2091F5
:100D4000F3008091F20090E0922B6115710551F053
:100D50008830910538F421912093F1006150710998
:100D60000196F3CF21E0089709F020E08091E80098
:100D70008E778093E800C6CF2111C7CFD6CF809160
:100D8000FE03882339F0853039F08091E80083FF35
:100D9000CCCF04C082E0089583E0089581E00895F7
:100DA0008F708093E900EBEEF0E0808181608083BA
:100DB000EDEEF0E010826093EC0040838091EE0055
:100DC000881F8827881F08958091FF0387FD05C02D
:100DD0008091E80080FF0EC012C08091E80082FD83
:100DE00005C08091FE038111F8CF08958091E8003D
:100DF0008B7708C08091FE038111EACF089580911E
:100E0000E8008E778093E80008958091E400909147
:100E1000E50045E62091EC0020FF21C02091E8008C
:100E200020FD21C02091FE03222389F0253089F086
:100E30002091EB0025FD0FC02091E4003091E500EA
:100E40002817390739F3415041F0C901E3CF82E057
:100E5000089583E0089581E0089584E00895209145
:100E6000E80022FFDFCF80E008950E94A1070E94E2
:100E7000A907E0EEF0E0808181608083E8EDF0E09A
:100E800080818F77808319BCA7EDB0E08C918E7F35
:100E90008C9380818F7E80831092FD0308950F9341
:100EA0001F93CF93DF930E94A1070E94A907C8ED6B
:100EB000D0E088818F778883888180688883888163
:100EC0008F7D888319BC1092FE031092FB03109251
:100ED000FC0300EE10E0F80180818B7F8083888125
:100EE0008160888342E060E080E00E94D006E1EE0D
:100EF000F0E080818E7F8083E2EEF0E0808181608F
:100F00008083808188608083F80180818E7F8083E8
:100F1000888180618883DF91CF911F910F9108951F
:100F2000E8EDF0E080818F7E8083E7EDF0E0808166
:100F30008160808384E082BF81E08093FD030C9414
:100F40004F07E8EDF0E080818E7F80831092E20011
:100F500008951092DA001092E10008951F920F9206
:100F60000FB60F9211242F933F934F935F936F937C
:100F70007F938F939F93AF93BF93EF93FF93809152
:100F8000E10082FF0BC08091E20082FF07C08091E8
:100F9000E1008B7F8093E1000E94AB048091DA0036
:100FA00080FF1FC08091D80080FF1BC08091DA00B5
:100FB0008E7F8093DA008091D90080FF0DC080E1A0
:100FC00089BD82E189BD09B400FEFDCF81E0809337
:100FD000FE030E94990405C019BC1092FE030E94F2
:100FE000A7048091E10080FF19C08091E20080FF9A
:100FF00015C08091E2008E7F8093E2008091E20034
:1010000080618093E2008091D80080628093D80054
:1010100019BC85E08093FE030E9475058091E10074
:1010200084FF30C08091E20084FF2CC080E189BD44
:1010300082E189BD09B400FEFDCF8091D8008F7D8B
:101040008093D8008091E1008F7E8093E1008091B1
:10105000E2008F7E8093E2008091E20081608093C5
:10106000E2008091FB03882311F084E007C08091A7
:10107000E30087FF02C083E001C081E08093FE03AC
:101080000E94BD058091E10083FF29C08091E200AC
:1010900083FF25C08091E100877F8093E10082E09B
:1010A0008093FE031092FB038091E1008E7F80937A
:1010B000E1008091E2008E7F8093E2008091E20067
:1010C00080618093E20042E060E080E00E94D00610
:1010D0008091F00088608093F0000E94AA04FF9144
:1010E000EF91BF91AF919F918F917F916F915F91A0
:1010F0004F913F912F910F900FBE0F901F90189519
:101100001F920F920FB60F9211242F933F934F937C
:101110005F936F937F938F939F93AF93BF93CF937F
:10112000EF93FF93C091E900CF708091EC00109293
:10113000E9008091F000877F8093F00078940E940E
:10114000BC081092E9008091F00088608093F00064
:10115000C093E900FF91EF91CF91BF91AF919F9123
:101160008F917F916F915F914F913F912F910F9050
:101170000FBE0F901F9018951F93CF93DF9300D051
:10118000CDB7DEB7EFEFF3E08091F100819384E01B
:10119000E730F807C9F70E94C0048091E80083FF98
:1011A000E7C02091FF0330910004832F90E08A3044
:1011B000910508F0DDC0FC01EA5AFF4F0C94EE29BE
:1011C000203881F0223809F0D3C0809103048F7059
:1011D0008093E9008091EB0085FB882780F91092CD
:1011E000E90004C08091FC03811182E09091E80045
:1011F000977F9093E8008093F1001092F10092C0E5
:10120000822F8D7F09F0B4C0222319F0223061F0C3
:10121000AFC080910104813009F0AAC0333009F0D9
:1012200080E08093FC0328C080910104811124C0D8
:10123000209103042F7009F49BC02093E900809152
:10124000EB0080FF19C08091EB00333011F4806215
:1012500011C080618093EB0081E090E0022E01C01C
:10126000880F0A94EAF78093EA001092EA008091CE
:10127000EB0088608093EB001092E9008091E80019
:10128000877F53C0211174C0109101041F77809192
:10129000E3008078812B8093E3008091E800877FD2
:1012A0008093E8000E94E4068091E80080FFFCCF74
:1012B0008091E30080688093E300112311F083E0C4
:1012C00001C082E08093FE0353C02058223008F012
:1012D0004FC0AE014F5F5F4F6091030480910104E6
:1012E000909102040E94BF05009709F441C020912B
:1012F000E800277F2093E800BC0189819A810E9441
:101300006F068091E8008B778093E80031C0203829
:1013100079F58091E800877F8093E8008091FB0356
:101320008093F1008091E8008E778093E8000E941E
:10133000E4061EC021111CC0909101049230C0F43B
:101340008091E800877F8093E8009093FB030E94E0
:10135000E4068091FB03811104C08091E30087FFC4
:1013600002C084E001C081E08093FE030E94AC04CF
:101370008091E80083FF0AC08091E800877F809316
:10138000E8008091EB0080628093EB000F900F905B
:10139000DF91CF911F9108959093080380930703E5
:1013A0000895E0910703F0910803309721F0019030
:1013B000F081E02D099480E00895E0910703F09119
:1013C0000803309721F00280F381E02D09940895FD
:1013D000E0910703F0910803309721F00480F58134
:1013E000E02D09940895209105033091060382179A
:1013F000930771F09093060380930503E091070330
:10140000F0910803309721F00680F781E02D0994D0
:10141000089520910303309104038217930771F01C
:101420009093040380930303E0910703F091080372
:10143000309721F00084F185E02D099408950895F6
:101440000C941F0A0E946A170E94FE010E947B19D9
:101450000E9451270E9437250E94731F0E94D223A9
:101460000E94B2220C949D285F926F927F928F927D
:101470009F92AF92BF92CF92DF92EF92FF920F9323
:101480001F93CF93DF9300D000D01F92CDB7DEB76C
:101490000E942A029AE0C92E93E0D92E00E010E0C3
:1014A000AA24A394B12C502E802F0E9416033C0135
:1014B000F601E190F1906F01E826F926E114F104BC
:1014C000B1F40F5F1F4F0530110569F78FEF898366
:1014D0008A831B820E9473178160782F9D838C837F
:1014E00049815A816B818D810E94F10A41C08091AE
:1014F0006A0381FD0E941F0320E030E04501022EB7
:1015000002C0880C991C0A94E2F7C4018E219F2125
:10151000892B41F129835A826820792081E067284C
:1015200009F480E08B830E9473178160782F9D837C
:101530008C8349815A816B818D810E94F10A498196
:101540005A816B817C818D810E947903F801EE0FB5
:10155000FF1FE65FFC4F808191818825992591834B
:10156000808306C02F5F3F4F2E30310539F6A9CF5B
:101570000E94FC160E94AF1C109109030E94D10921
:101580001817D1F00E94D109809309030F900F9092
:101590000F900F900F90DF91CF911F910F91FF90BF
:1015A000EF90DF90CF90BF90AF909F908F907F9003
:1015B0006F905F900C94D6250F900F900F900F9026
:1015C0000F90DF91CF911F910F91FF90EF90DF90DF
:1015D000CF90BF90AF909F908F907F906F905F90D3
:1015E0000895CF93DF93CDB7DEB72B970FB6F8945E
:1015F000DEBF0FBECDBF4F83588769877A878B8741
:101600008A859B85892B31F05F3F11F080E003C014
:101610004F3FE1F781E0811107C04F81588569850F
:101620007A858B850E947903DE01119686E0FD01A3
:1016300011928A95E9F785E0FE01379601900D92A7
:101640008A95E1F749815A816B817C818D819E81E8
:101650000E94C2122B960FB6F894DEBF0FBECDBF0C
:10166000DF91CF910895CF93C82F882309F4CCC080
:10167000823859F40E94D10981FDC6C089E30E94D5
:101680003F150E94D61689E30CC0833879F40E9476
:10169000D10980FDB9C083E50E943F150E94D6168E
:1016A00083E50E940416CF910C94D616843859F421
:1016B0000E94D10982FDA8C087E40E943F150E94C4
:1016C000D61687E4EECF8CEF8C0F813A48F48C2F3E
:1016D0000E94DE1E811198C08C2F0E943F15E3CF1F
:1016E00080E28C0F883048F4C77081E001C0880F19
:1016F000CA95EAF70E94A516D6CF8BE58C0F8330EA
:1017000078F4C53A29F0C63A31F482E890E005C091
:1017100081E890E002C083E890E0CF910C94F30957
:1017200088E58C0F853108F06FC0C83A61F1C93A7D
:1017300069F1CA3A71F1CB3A79F1CC3A81F1CD3AFB
:1017400089F1CE3A91F1CF3A99F1C13BA1F1C03B79
:10175000A9F1C23BB1F1C33BB9F1C43BC1F1C53BF7
:10176000C9F1C63BD1F1C73BD9F1C83BE1F1C93B57
:10177000E9F1CA3BF1F1CB3BF9F1CC3B09F03FC0B9
:101780008AE292E03EC082EE90E03BC089EE90E0BB
:1017900038C08AEE90E035C085EB90E032C086EB31
:1017A00090E02FC083EB90E02CC084EB90E029C048
:1017B00087EB90E026C08CEC90E023C08DEC90E0AD
:1017C00020C083E891E01DC08AE891E01AC082E958
:1017D00091E017C084E991E014C081E292E011C069
:1017E00083E292E00EC084E292E00BC085E292E0D8
:1017F00008C086E292E005C087E292E002C080E085
:1018000090E0CF910C94090ACF910895882309F4B0
:101810004BC0823859F40E94D10981FF45C089E349
:101820000E943F150E94D61689E30CC0833871F4DC
:101830000E94D10980FF38C083E50E943F150E94B5
:10184000D61683E50E9404160C94D616843859F4F3
:101850000E94D10982FF28C087E40E943F150E94A0
:10186000D61687E4EFCF9CEF980F913A58F390E2A9
:10187000980F983050F4877091E001C0990F8A95C5
:10188000EAF7892F0E94AB16DFCF9BE5980F9330C4
:1018900020F480E090E00C94F309885A853120F41C
:1018A00080E090E00C94090A0895882321F00E94BA
:1018B000A5160C94D6160895882321F00E94AB1625
:1018C0000C94D6160895CF92DF92EF92FF920F9369
:1018D0001F93CF93DF93CDB7DEB728970FB6F89459
:1018E000DEBF0FBECDBF8C0185E0F801DE01119691
:1018F00001900D928A95E1F7F80140813181F280E3
:10190000258122952F7083819481892B31F03F3F6F
:1019100031F481E04F3F19F403C081E001C080E061
:1019200080FD43C349833A8389819A812F830E9432
:10193000FD149E8388870E94FC140E9424144E810B
:10194000E42FE295EF70F0E0E05AFF4F2F816885B9
:101950000C94EE29842F807F142F1F70882311F0A0
:101960001295107FFF2059F0112309F45FC2812FD7
:1019700068870E94B8160E94D616688557C2862FBF
:101980000E94060C112309F410C3812F0E94BE1679
:1019900028960FB6F894DEBF0FBECDBFDF91CF9172
:1019A0001F910F91FF90EF90DF90CF900C94D6167F
:1019B000842F807F942F9F70E92E803219F0E2945B
:1019C00080EFE822662319F0613001F129C0FF2081
:1019D000A9F08E2D222349F1213039F528960FB632
:1019E000F894DEBF0FBECDBFDF91CF911F910F9155
:1019F000FF90EF90DF90CF900C94C816222319F03F
:101A0000213009F4D2C20E94CB162CC0FF20E9F08D
:101A1000263008F0CAC20E94A2168E2129F022C0E8
:101A2000FF20F1F0211115C08E2D28960FB6F894E5
:101A3000DEBF0FBECDBFDF91CF911F910F91FF9001
:101A4000EF90DF90CF900C94550C253008F0ADC28C
:101A500009C0F801858180FFE9C18F708583E4CFDB
:101A60002111F8C18E2D66C1242F2695269523704D
:101A700030E02115310521F021303105C9F095C242
:101A8000FF2021F0862F942F937002C080E090E019
:101A900028960FB6F894DEBF0FBECDBFDF91CF9171
:101AA0001F910F91FF90EF90DF90CF900C94F3096E
:101AB000FF2021F0862F942F937002C080E090E0E9
:101AC00028960FB6F894DEBF0FBECDBFDF91CF9141
:101AD0001F910F91FF90EF90DF90CF900C94090A27
:101AE000862FFF2019F00E94B71B02C00E941F1C06
:101AF00028960FB6F894DEBF0FBECDBFDF91CF9111
:101B00001F910F91FF90EF90DF90CF900C94A41C49
:101B1000842F837009F076C0F11047C2262F2295DA
:101B200026952770220F220F862F8F70C82ED12C5A
:101B3000E12CF12C022E04C0CC0CDD1CEE1CFF1C91
:101B40000A94D2F764FF10C06FE070E080E090E08C
:101B500004C0660F771F881F991F2A95D2F76095DA
:101B600070958095909503C060E070E0CB01242FC4
:101B7000269526952370422F50E042305105D1F032
:101B80004330510559F16C297D298E299F29413017
:101B9000510541F128960FB6F894DEBF0FBECDBFB8
:101BA000DF91CF911F910F91FF90EF90DF90CF9039
:101BB0000C9439146C297D298E299F2928960FB6FB
:101BC000F894DEBF0FBECDBFDF91CF911F910F9173
:101BD000FF90EF90DF90CF900C944B140E9439143B
:101BE000C701B60128960FB6F894DEBF0FBECDBF71
:101BF000DF91CF911F910F91FF90EF90DF90CF90E9
:101C00000C942714FF2019F0842F817001C0869551
:101C1000882309F4CAC1262F229526952770220F02
:101C2000220F862F8F70C82ED12CE12CF12C022E82
:101C300004C0CC0CDD1CEE1CFF1C0A94D2F764FF20
:101C400010C06FE070E080E090E004C0660F771F86
:101C5000881F991F2A95D2F7609570958095909569
:101C600003C060E070E0CB01242F269526952370F9
:101C7000422F50E042305105D1F04330510559F127
:101C80006C297D298E299F294130510541F12896E3
:101C90000FB6F894DEBF0FBECDBFDF91CF911F917D
:101CA0000F91FF90EF90DF90CF900C94D8146C2997
:101CB0007D298E299F2928960FB6F894DEBF0FBE86
:101CC000CDBFDF91CF911F910F91FF90EF90DF90EB
:101CD000CF900C94EA140E94D814C701B60128963C
:101CE0000FB6F894DEBF0FBECDBFDF91CF911F912D
:101CF0000F91FF90EF90DF90CF900C94C614603F4F
:101D000049F118F4603E48F48CC0623F09F451C0B8
:101D1000E0F1633F09F461C084C0162F1F70842F67
:101D20008F71FF2021F00E947114812F7ECE0E94BE
:101D30008C14812F28960FB6F894DEBF0FBECDBF4E
:101D4000DF91CF911F910F91FF90EF90DF90CF9097
:101D50000C945C0CFF20A9F0253008F026C1842FDC
:101D60008F7128960FB6F894DEBF0FBECDBFDF91FE
:101D7000CF911F910F91FF90EF90DF90CF900C9437
:101D8000AB14263008F011C1EACFFF20A1F0842F58
:101D90008F7128960FB6F894DEBF0FBECDBFDF91CE
:101DA000CF911F910F91FF90EF90DF90CF900C9407
:101DB0007114FF2061F3842F8F7128960FB6F89469
:101DC000DEBF0FBECDBFDF91CF911F910F91FF906E
:101DD000EF90DF90CF900C948C14FF2091F0842F23
:101DE0008F7128960FB6F894DEBF0FBECDBFDF917E
:101DF000CF911F910F91FF90EF90DF90CF900C94B7
:101E0000621428960FB6F894DEBF0FBECDBFDF91E7
:101E1000CF911F910F91FF90EF90DF90CF900C9496
:101E20005D14FF20A1F0222309F4B1CF862F28965C
:101E30000FB6F894DEBF0FBECDBFDF91CF911F91DB
:101E40000F91FF90EF90DF90CF900C94330B2223F3
:101E500009F4B1CF862F28960FB6F894DEBF0FBED7
:101E6000CDBFDF91CF911F910F91FF90EF90DF9049
:101E7000CF900C94060C4F70C8010E947B012896ED
:101E80000FB6F894DEBF0FBECDBFDF91CF911F918B
:101E90000F91FF90EF90DF90CF900C946F13F110A3
:101EA00084C0662341F0842F8F70843021F0407FFE
:101EB000862F8F70482B942F9F70492F50E042300F
:101EC000510509F440C0BCF44115510561F14130A0
:101ED000510509F06AC028960FB6F894DEBF0FBE10
:101EE000CDBFDF91CF911F910F91FF90EF90DF90C9
:101EF000CF900C94FC2343305105A9F14430510597
:101F000009F053C0862F28960FB6F894DEBF0FBE97
:101F1000CDBFDF91CF911F910F91FF90EF90DF9098
:101F2000CF900C94592428960FB6F894DEBF0FBEBC
:101F3000CDBFDF91CF911F910F91FF90EF90DF9078
:101F4000CF900C94E32328960FB6F894DEBF0FBE13
:101F5000CDBFDF91CF911F910F91FF90EF90DF9058
:101F6000CF900C94152428960FB6F894DEBF0FBEC0
:101F7000CDBFDF91CF911F910F91FF90EF90DF9038
:101F8000CF900C9434244F70C80128960FB6F89463
:101F9000DEBF0FBECDBFDF91CF911F910F91FF909C
:101FA000EF90DF90CF900C94870128960FB6F894AD
:101FB000DEBF0FBECDBFDF91CF911F910F91FF907C
:101FC000EF90DF90CF9008950E94C5160E9494165E
:101FD0000E94D6160E94501D0E94A41C80E090E032
:101FE0000E94F30980E090E00C94090A0E94B51663
:101FF0000C94E40F0E94FD14292F22952F7030E0DD
:102000002C3031054CF42A3031056CF42250310962
:102010002230310590F407C02C30310551F02F30BB
:10202000310539F00AC0803E10F0803F31F481E084
:10203000089593FB882780F9089580E00895CF9351
:10204000DF9300D000D01F92CDB7DEB70F900F9076
:102050000F900F900F90DF91CF910895CF93DF9362
:1020600000D000D000D0CDB7DEB726960FB6F894DA
:10207000DEBF0FBECDBFDF91CF9108951F93CF93E9
:10208000DF93C091140316E080911503C81799F0EF
:10209000D0E01C9FF0011D9FF00D1124EA5EFC4F63
:1020A0004081518162817381848195810E942E10CB
:1020B0002196C770E9CFDF91CF911F91089540918C
:1020C0004603509147036091480370914903809102
:1020D0004A0390914B030C942E10CF9380914B03A5
:1020E00082958F7009F05FC080914803882309F4BE
:1020F0005AC020911403A09115036091460370917A
:1021000047038091490390914A0331E06F3F09F002
:1021100030E0B32FC6E02A1709F445C0009721F03C
:102120007F3F21F44B2F03C041E001C040E030E08D
:1021300040FD35C0C29FF001C39FF00D1124EA5E3F
:10214000FC4F418174132BC04081641328C042812D
:10215000411125C0438154814817590710F441505B
:102160005109481B590B483C5105C8F480914B0359
:102170008F70806180934B0386E0829FF001839F84
:10218000F00D1124E55EFC4F80818F7080618083AB
:1021900086E493E00E94630CCF910C943E102F5F75
:1021A0003F4F2770B8CFCF910895CF92DF92EF9233
:1021B000FF920F931F93CF93DF93CDB7DEB7629754
:1021C0000FB6F894DEBF0FBECDBF8C0185E0F801DD
:1021D000DE011D9601900D928A95E1F7D8014C9190
:1021E00011965C91119712966C9112971396ED903F
:1021F000FC90149770914603E091470320914903A6
:1022000030914A032115310531F0EF3F31F481E07F
:102210007F3F19F403C081E001C080E0B82FB170A6
:10222000CB2E80FD6CC1D0904803DD2009F4F5C0B1
:10223000F0914B03E216F30638F0C701821B930BB3
:10224000883C910548F09BC0209530952E0D3F1D90
:10225000283C310508F093C08F2F807F09F052C0D1
:10226000E51314C0741312C0D62E61110FC0FF7095
:10227000F061F0934B030E945F1086E493E00E94AC
:10228000630C80914B03F80185836CC1EF2831F01A
:102290005F3F31F481E04F3F19F403C081E001C09A
:1022A00080E080FD03C081E0862701C080E0F82F38
:1022B000F170FF2E80FF1CC0809114032091150344
:1022C00036E0821709F428C190E0389FF001399F69
:1022D000F00D1124EA5EFC4F7181571306C0708126
:1022E000471303C07281671303C001968770E9CF5B
:1022F000D62E662309F436C180914B03816080930A
:102300004B0353C0E51308C0741306C0611104C029
:10231000D8011596FC93AEC04D875E878D859E854E
:102320006A8B0E94FA0F6A89882329F1D62E6623C8
:1023300011F120914B03822F82958F7090E00297CC
:102340000CF460C0809146039091470398878F8377
:102350001986FB86EA862C87CE01079651C0E517C1
:1023600031F14D875E878D859E856A8B0E94FA0FBD
:102370006A8981112EC0C8010E94630CA4C08F2FEE
:10238000807F69F77E2DF98AE88A89890E941F106B
:1023900086E493E00E94630CE6E4F3E086E0DF016C
:1023A0001D928A95E9F70E945F10D12CDBC074134F
:1023B000D8CF6111D6CFD8011596FC93C8010E94E1
:1023C000630CE6E4F3E086E0DF011D928A95E9F70D
:1023D000C9C0D62E662379F220914B03822F8295B5
:1023E0008F7090E0029774F08091460390914703BC
:1023F0009A8389831B82FD82EC822E83CE01019613
:102400000E94630C86E0F801A6E4B3E001900D920F
:102410008A95E1F70E946D106FC0E216F30628F06E
:10242000C701821B930B9C0104C0209530952E0D93
:102430003F1D283C310508F052C0D62E662309F412
:102440009ACFE5132CC074132AC080914B0380FDF2
:102450001DC0982F92959F70C9F0D80115968C9346
:1024600015979F3039F09F5F9295907F8F70892BE1
:1024700015968C93C8010E94630C86E0F801A6E4CF
:10248000B3E001900D928A95E1F736C086E0F8013D
:10249000A6E4B3E001900D928A95E1F763C04D8701
:1024A0005E878D859E850E94FA0F882379F086E0ED
:1024B000F801A6E4B3E001900D928A95E1F70E943D
:1024C0006D100E945F10DD24D3944CC080914B03AB
:1024D000816080934B03C8010E94630C43C07E2D32
:1024E000F98AE88A89890E941F10E6E4F3E086E011
:1024F000DF011D928A95E9F70E945F1033C06623C1
:1025000009F439CF4D875E878D859E850E94FA0F2D
:10251000882309F430CFCBCF4D875E878D859E858C
:102520000E94FD14292F22952F7030E022303105B2
:102530002CF49F7041F0811106C00CC0243031058D
:102540002CF49F7049F4805E883020F0C8010E940E
:10255000630CCF2CDC2C06C0D80115969C91907F83
:1025600091F7F8CF8D2D62960FB6F894DEBF0FBEAF
:10257000CDBFDF91CF911F910F91FF90EF90DF9032
:10258000CF9008951F93CF93DF93CDB7DEB72C97ED
:102590000FB6F894DEBF0FBECDBF4F835887698753
:1025A0007A878B879C87CE0107960E94D510882357
:1025B000C1F02F8138858A859B85892B31F03F3F7B
:1025C00011F080E003C02F3FE1F781E0811147C0A7
:1025D0004F81588569857A858B859C850E942E1050
:1025E0003EC086E0FE013796DE01119601900D9205
:1025F0008A95E1F7FF81E8854A855B85411551059C
:1026000031F0EF3F31F481E0FF3F19F403C081E086
:1026100001C080E080FD23C02091150330E0C90196
:102620000196877099276091140370E086179707C9
:10263000F1F1F983EA835D834C8396E0929FD001A8
:10264000939FB00D1124AA5EBC4FFE0131960190FC
:102650000D929A95E1F7809315030E943E1016E0C3
:102660008091140390911503891779F1189FC00187
:1026700011248A5E9C4F0E94D510882331F1E0918D
:1026800014031E9FF0011124EA5EFC4F408151812A
:1026900062817381848195810E942E108091140340
:1026A00090E001968770992780931403D9CF0E94F8
:1026B000F60F1092150310921403E6E4F3E086E09F
:1026C000DF011D928A95E9F7CACF2C960FB6F894D0
:1026D000DEBF0FBECDBFDF91CF911F910895DF9276
:1026E000EF92FF920F931F93CF93DF93FC0100971C
:1026F00009F48AC0E12CF12CDD24D394EF0121965A
:102700008491853709F461C058F4843708F04EC0CD
:10271000843008F06AC08130D1F0823071F174C029
:10272000883709F45DC050F4863709F455C08737FF
:1027300009F06AC08E2D0E94B21654C09CE7980F13
:10274000903708F061C08F770E94060C50C08F014F
:102750000E5F1F4FFE01849190E2980F983050F465
:102760008770FD2D01C0FF0F8A95EAF78F2F0E9419
:10277000B81615C00E94330B14C08F010E5F1F4F97
:10278000FE01849190E2980F983068F48770FD2DD7
:1027900001C0FF0F8A95EAF78F2F0E94BE160E9494
:1027A000D616E80124C00E94060CFBCF9F012E5FC5
:1027B0003F4FFE01C491CC2369F08FE99FE0019760
:1027C000F1F700C00000C150F6CF9F012E5F3F4FD0
:1027D000FE01F490E9010BC00E94A216E82E07C08A
:1027E0000E94B5160E94D61602C00E94330B9F2D80
:1027F000992341F0EFE9FFE03197F1F700C00000C5
:102800009150F6CFFE017ACFDF91CF911F910F91BA
:10281000FF90EF90DF900895609350037093510301
:1028200080935203909353030E9424260C94E40F48
:1028300060934C0370934D0380934E0390934F032A
:102840000E947C260C94E40F08950C940C140F93B2
:102850001F93009150031091510320915203309126
:102860005303602B712B822B932B1F910F910C9490
:102870000C140F931F93009150031091510320915A
:1028800052033091530360237123822393231F91BA
:102890000F910C940C140F931F93009150031091FF
:1028A00051032091520330915303602771278227EF
:1028B00093271F910F910C940C1460E070E0CB01F2
:1028C0000C94181441E050E060E070E004C0440F44
:1028D000551F661F771F8A95D2F7CB01BA010C945A
:1028E000181441E050E060E070E004C0440F551F50
:1028F000661F771F8A95D2F780914C0390914D0304
:10290000A0914E03B0914F03482B592B6A2B7B2B80
:10291000CB01BA010C94181441E050E060E070E083
:1029200004C0440F551F661F771F8A95D2F7409544
:1029300050956095709580914C0390914D03A091B6
:102940004E03B0914F03482359236A237B23CB01C5
:10295000BA010C94181441E050E060E070E004C04B
:10296000440F551F661F771F8A95D2F780914C033D
:1029700090914D03A0914E03B0914F0348275927E2
:102980006A277B27CB01BA010C9418140F931F936D
:1029900000914C0310914D0320914E0330914F0351
:1029A000602B712B822B932B1F910F910C94181479
:1029B0000F931F9300914C0310914D0320914E03F0
:1029C00030914F0360237123822393231F910F9132
:1029D0000C9418140F931F9300914C0310914D0306
:1029E00020914E0330914F03602771278227932750
:1029F0001F910F910C9418140895CF92DF92EF92CB
:102A0000FF920F931F93CF93DF93EC01C09050037D
:102A1000D0905103E0905203F090530380914C0307
:102A200090914D03A0914E03B0914F03C82AD92A2B
:102A3000EA2AFB2A0FE110E0B701A601002E04C02C
:102A400076956795579547950A94D2F740FF07C04A
:102A5000BE01802F0E94AE188130910539F40150DB
:102A6000110950F7BE0180E00E94AE18DF91CF91AE
:102A70001F910F91FF90EF90DF90CF900895CF922C
:102A8000DF92EF92FF920F931F93CF93DF93F82E75
:102A900080910B018823E9F080910C018823C9F013
:102AA0008F2D8695869586958F3008F0A4C0E0918D
:102AB0000D01F0910E01E80FF11D8F2D877021E0BF
:102AC00030E001C0220F8A95EAF78181822B818351
:102AD00092C0E090670340916503E0910D01F09191
:102AE0000E01442309F472C0209166038E2D3FEF3E
:102AF00006E010E0A82FBB27A7FDB095EF01CA0F95
:102B0000DB1F9A819F1509F476C03F3F19F491119C
:102B100001C0382FCD010196C6E0D0E0B8010E9477
:102B2000DA298213E7CF2E1151C03F3F71F4822F73
:102B3000992787FD90950196BE010E94DA2980931E
:102B4000670341504093650341C0832F992787FD58
:102B500090950196BE010E94DA29EE24E394C6E026
:102B6000D0E0082F112707FD10956F01C00ED11E70
:102B7000D60112966C916623A1F0432F552747FD8D
:102B80005095CF01840F951FDC0112966C93D601EE
:102B900012961C92CA010196BE010E94DA29382FB2
:102BA00001C0E394C8010196BE010E94DA29821394
:102BB000D8CF822F992787FD90958E199109069677
:102BC00066E070E00E94DA29809366032091660334
:102BD000332727FD3095E20FF31FF282C9010196DA
:102BE00066E070E00E94DA298093660380916503B5
:102BF0008F5F80936503DF91CF911F910F91FF90BD
:102C0000EF90DF90CF900895DF92EF92FF920F93B5
:102C10001F93CF93DF93482F80910B018823F1F00E
:102C200080910C018823D1F0842F86958695869516
:102C30008F3008F071C0E0910D01F0910E01E80FA6
:102C4000F11D477021E030E0042E01C0220F0A94EC
:102C5000EAF720958181282321835EC0E0916703F4
:102C6000D0906503DD2009F457C0C0910D01D091CB
:102C70000E0100916603112707FD109586E0E82EEE
:102C8000F12CF0E0DE01AE0FBF1F9D012E5F3F4F24
:102C900012968C91841336C0D9011C92DA94D0928A
:102CA0006503D11004C0109267031092660320914F
:102CB0006603822F992787FD9095059666E070E060
:102CC0000E94DA29E817F90739F540916703E6E031
:102CD000F0E0822F992787FD90950596BF010E940D
:102CE000DA299C010596BF010E94DA298C0F9D1FED
:102CF000DC0112968C91811102C02413EACF20933B
:102D000066030AC0CF010196B7010E94DA29E82FB5
:102D10008017910709F0B5CFDF91CF911F910F91E7
:102D2000FF90EF90DF90089581E090E0E0910D0139
:102D3000F0910E01E80FF91F108201968031910584
:102D4000A9F7089580916903089590916903982BDC
:102D500090936903089580959091690398239093C7
:102D60006903089580936903089510926903089593
:102D700090916803982B90936803089580959091A3
:102D80006803982390936803089510926803089548
:102D900080935403089510925403089580910C0178
:102DA000811103C08091650308950895E0910D019C
:102DB000F0910E01809169038083E0910D01F09103
:102DC0000E01808190916803892B80839091540338
:102DD000992361F0E0910D01F0910E018081892B22
:102DE00080830E94CE1681111092540380910D01B0
:102DF00090910E010C94DD09089508958091FE03D1
:102E0000843019F110926B0320E488E190E00FB652
:102E1000F894A895809360000FBE209360000E94F4
:102E2000901F83B7817F846083BF83B7816083BF36
:102E30007894889583B78E7F83BF88E10FB6F89426
:102E400080936000109260000FBE08950895089569
:102E5000CF930E9426170E942A020E942717C0E0E3
:102E60008C2F0E941603892B29F4CF5FC530C1F740
:102E700080E001C081E0CF9108950E94F60F0C948C
:102E8000D2231F920F920FB60F9211248F939F930C
:102E9000AF93BF9380916B03811113C080916C033A
:102EA00090916D03A0916E03B0916F034196A11DA7
:102EB000B11D80936C0390936D03A0936E03B09348
:102EC0006F03BF91AF919F918F910F900FBE0F90A5
:102ED0001F90189582E084BD93E095BD9AEF97BD51
:102EE00080936E0008952FB7F89480916C039091B1
:102EF0006D03A0916E03B0916F032FBF0895CF9221
:102F0000DF92EF92FF920F931F932FB7F8944091A7
:102F10006C0350916D0360916E0370916F032FBF2E
:102F20006A017B01EE24FF248C0120E030E0C01612
:102F3000D106E206F30610F441505109481B590B23
:102F4000CA011F910F91FF90EF90DF90CF900895ED
:102F50001F920F920FB60F9211248F939F93AF93EE
:102F6000BF9380916C0390916D03A0916E03B0911B
:102F70006F030196A11DB11D80936C0390936D03A7
:102F8000A0936E03B0936F03BF91AF919F918F9108
:102F90000F900FBE0F901F9018950E943507F89460
:102FA0002FEF87EA91E6215080409040E1F700C082
:102FB000000087E090EBDC018093090490930A0401
:102FC000A0930B04B0930C042CE088E190E00FB6C2
:102FD000F894A895809360000FBE20936000FFCF07
:102FE0008D3B60F4883A80F5853A28F5843008F501
:102FF000813009F06BC081E090E00895883E98F43C
:10300000803EB8F48F3B09F061C00E94F60F2FEFAD
:1030100080E792E0215080409040E1F700C000003E
:103020000E94CD1753C0803F08F450C090E09065D7
:10303000089590E00895853A09F44BC0863A09F066
:103040004BC082E890E40895883A09F448C0893A70
:1030500009F448C08A3A09F448C08B3A09F448C0D8
:103060008C3A09F448C08D3A09F448C08E3A09F404
:1030700048C08F3A09F448C0813B09F448C0803BFE
:1030800009F448C0823B09F448C0833B09F448C0B6
:10309000843B09F448C0853B09F448C0863B09F4E9
:1030A00048C0873B09F448C0883B09F448C0893BC5
:1030B00009F448C08A3B09F448C08B3B09F448C076
:1030C0008C3B09F048C08AE296E4089580E090E0E5
:1030D000089581E890E4089583E890E4089582EEED
:1030E00094E4089589EE94E408958AEE94E40895B2
:1030F00085EB94E4089586EB94E4089583EB94E4DF
:10310000089584EB94E4089587EB94E408958CEC9F
:1031100094E408958DEC94E4089583E895E408958B
:103120008AE895E4089582E995E4089584E995E4B0
:10313000089581E296E4089583E296E4089584E296
:1031400096E4089585E296E4089586E296E408956B
:1031500087E296E4089580E094E408950E94E501F2
:10316000803EA8F4803C00F5813309F45CC038F45B
:10317000893209F452C08A3209F45BC05FC08933D6
:10318000B1F08238A1F0853309F441C057C0833EC5
:1031900041F128F4803E99F0823EB9F04FC0863E5E
:1031A00031F1873E71F14AC00E94E9010895909182
:1031B000070490FD02C091FF41C080EE3FC08091A6
:1031C000070480FFFACF89E339C08091070482FFAA
:1031D0000CC08091070484FF02C080E02FC083EE02
:1031E0002DC08091070482FFF4CF82EE27C080912A
:1031F000070483FF0AC08091070484FDEECF87EEA9
:103200001DC08091070483FFF6CF86EE17C0809122
:10321000070485FF06C089E211C08091070485FF7D
:10322000FACF85E30BC08091070486FF06C08AE2CF
:1032300005C08091070486FFFACF81E30E94F01752
:103240000895BF92CF92DF92EF92FF920F931F9358
:10325000CF93DF938C01B12CEE24E394F12C8B2DD2
:103260000E9416036C01C0E0D0E097010C2E02C052
:10327000220F331F0A94E2F72C213D21232BB1F0BA
:103280006C2F7B2D80E00E94AE189C018017910767
:1032900059F0832F807E932F907C11F0803A31F487
:1032A00030E02017310711F481E009C02196CE30BB
:1032B000D105D9F6B39485E0B812D1CF80E0DF9183
:1032C000CF911F910F91FF90EF90DF90CF90BF9023
:1032D0000895CF93DF93EC018CE290E00E942119D6
:1032E000882329F0CE01DF91CF910C94211980E041
:1032F000DF91CF910895CF930E94F51A811102C0FA
:103300000E94C61AC5E6C15049F00E942A028FE306
:103310009CE90197F1F700C00000F5CF89E290E049
:103320000E946919811130C18AE290E00E946919F6
:10333000882341F00E94EF1A0E94C61A0E94282892
:103340000E948D2785E090E00E94691981110E94FA
:10335000CD170E94FD160E94001B80936A0387E030
:1033600090E00E9469198823B1F18BE190E00E94FE
:103370006919882351F090916A0391FB882780F99D
:1033800021E0822780FB91F924C08EE090E00E942A
:103390006919882351F090916A0392FB882780F97C
:1033A00021E0822780FB92F914C080E190E00E9426
:1033B000691990916A03882341F093FB882780F96B
:1033C00021E0822780FB93F904C0892F809580FB40
:1033D00090F990936A0380916A030E94041B0E94F3
:1033E000121B8093070480EE90E00E9469198823E5
:1033F00041F080910704982F909590FB80F980937D
:10340000070489E390E00E946919882359F090919C
:10341000070491FB882780F921E0822780FB91F93E
:103420009093070482EE90E00E946919882359F076
:103430009091070492FB882780F921E0822780FB86
:1034400092F99093070486EE90E00E946919882310
:1034500059F09091070493FB882780F921E0822797
:1034600080FB93F99093070483EE90E00E94691922
:10347000882359F09091070494FB882780F921E074
:10348000822780FB94F99093070485E390E00E94E3
:103490006919882359F09091070495FB882780F9D2
:1034A00021E0822780FB95F99093070481E390E067
:1034B0000E946919882359F09091070496FB882788
:1034C00080F921E0822780FB96F99093070481E13F
:1034D00090E00E946919882359F09091070497FBA6
:1034E000882780F921E0822780FB97F990930704D1
:1034F000809107040E94161B8091070487FB882790
:1035000080F980930C0187E290E00E946919C82F2E
:103510008EE190E00E9469198111C2608FE190E014
:103520000E9469198111C46080E290E00E946919CB
:103530008111C86081E290E00E9469198111C06127
:1035400082E290E00E9469198111C06283E290E0FA
:103550000E9469198111C06484E290E00E94691997
:10356000882311F0C06802C0CC2329F08C2F0E9460
:103570000D1B6C2F03C00E94091B682F70E080E0B8
:1035800090E0CF910C942514CF9108956DEE7EEFCD
:1035900080E090E00E94102A60E082E090E00E94CB
:1035A000022A60E083E090E00E94022A60E084E06A
:1035B00090E00E94022A60E085E090E00E94022AEA
:1035C00060E086E090E00E94022A60E087E090E000
:1035D0000E94022A60E088E090E00C94022A6FEFDB
:1035E0007FEF80E090E00C94102A80E090E00E9451
:1035F000FC2921E08D3E9E4F09F020E0822F0895A6
:1036000082E090E00C94F429682F82E090E00C9422
:10361000022A83E090E00C94F429682F83E090E084
:103620000C94022A84E090E00C94F429682F84E042
:1036300090E00C94022A86E090E00C94F429682F24
:1036400086E090E00C94022A87E090E00C94F42944
:10365000682F87E090E00C94022A88E090E00C94B8
:10366000F429682F88E090E00C94022A809172037C
:1036700080FF0BC06091120185E0689FB0011124AA
:1036800075956795759567952AC081FF09C060910A
:10369000120185E0689FB0011124759567951FC0E0
:1036A00082FF07C06091120185E0689FB00111247C
:1036B00016C0409173034423C9F06091110146176D
:1036C00088F72091120185E0289F90011124429FE4
:1036D000C001439F900D112470E00E94DA296038E8
:1036E000710540F46115710539F002C065E070E0C4
:1036F000862F08958FE7089581E0089580917203E1
:1037000080FF08C06091100170E075956795759510
:10371000679521C081FF06C06091100170E075952A
:10372000679519C082FF04C06091100170E010C05D
:10373000809173038823C1F060910F018617A0F771
:1037400090911001989FC001112470E00E94DA2925
:103750006038710528F46115710521F0862F0895F0
:103760008FE7089581E0089561E070E0F4CF803F35
:1037700021F40E94361B819504C0813F29F40E94E8
:10378000361B809376030895823F21F40E94361BF6
:10379000819504C0833F29F40E94361B80937503F2
:1037A0000895893F19F40E947E1B05C08A3F31F4B9
:1037B0000E947E1B81958093770308958B3F21F4AF
:1037C0000E947E1B819504C08C3F29F40E947E1BC1
:1037D000809378030895843F21F48091740381607D
:1037E00017C0853F21F480917403826011C0863F29
:1037F00021F48091740384600BC0873F21F4809191
:103800007403886005C0883F31F48091740380613F
:103810008093740308958D3F21F480917203816039
:103820000BC08E3F21F480917203826005C08F3FF0
:1038300029F4809172038460809372030895803F1D
:1038400039F48091760387FF6CC01092760369C0CB
:10385000813F29F4809176031816BCF362C09091E1
:103860007503823F29F497FF5CC01092750359C01D
:10387000833F19F41916CCF354C0893F41F4809169
:10388000770318160CF04DC0109277034AC08A3F98
:1038900029F48091770387FF44C0F6CF8B3F39F43A
:1038A0008091780387FF3DC0109278033AC08C3F27
:1038B00029F4809178031816BCF333C0843F21F4B7
:1038C000809174038E7F17C0853F21F4809174032B
:1038D0008D7F11C0863F21F4809174038B7F0BC0D4
:1038E000873F21F480917403877F05C0883F31F4BE
:1038F000809174038F7E8093740313C08D3F21F4F5
:10390000809172038E7F0BC08E3F21F480917203F1
:103910008D7F05C08F3F29F4809172038B7F809348
:1039200072038091750381110EC08091760381111D
:103930000AC080917703811106C0809178038111BC
:1039400002C010927303089584E793E00E94E8098F
:103950000E947317909371038093700308951F93CF
:10396000CF93DF9380917003909171030E947F1732
:1039700040917303442321F02091130130E006C0ED
:10398000209114015AE0259F90011124821793077A
:1039900008F482C08091750310917603D09177036B
:1039A000C0917803811107C0111105C0D11103C066
:1039B000CC2309F471C04F3F19F04F5F409373035C
:1039C000181624F40E94361B8093750380917503AA
:1039D00087FF05C00E94361B8195809375031116E1
:1039E00024F40E94361B809376038091760387FF30
:1039F00005C00E94361B8195809376036091750304
:103A0000662339F110917603112319F1772767FDA9
:103A10007095872F972F0E94D72823E333E343E342
:103A20005FE30E943B290E94A42860937503612FE5
:103A3000772767FD7095872F972F0E94D72823E35C
:103A400033E343E35FE30E943B290E94A428609391
:103A500076031D1624F40E947E1B809377038091C9
:103A6000770387FF05C00E947E1B819580937703B3
:103A70001C1624F40E947E1B8093780380917803A7
:103A800087FF05C00E947E1B819580937803DF919C
:103A9000CF911F910C94A41CDF91CF911F91089599
:103AA000E4E7F3E085E0DF011D928A95E9F71092E3
:103AB0007303109272030895833081F128F48130EA
:103AC00059F08230D1F00895853009F449C0B8F139
:103AD000863009F456C0089520911401862F90E095
:103AE000820F911D8F3F910520F4620F60931401A6
:103AF00008958FEF80931401089520911301862F6C
:103B000090E0820F911D8F3F910520F4620F60932A
:103B1000130108958FEF80931301089520911201EE
:103B2000862F90E0820F911D8F3F910520F4620F48
:103B30006093120108958FEF8093120108952091F0
:103B40001101862F90E0820F911D8F3F910520F487
:103B5000620F6093110108958FEF80931101089512
:103B600020911001862F90E0820F911D8F3F9105CB
:103B700020F4620F6093100108958FEF809310017D
:103B8000089520910F01862F90E0820F911D8F3FA5
:103B9000910520F4620F60930F0108958FEF8093D9
:103BA0000F010895833011F128F4813049F08230FB
:103BB00091F00895853081F120F18630C1F10895AA
:103BC00080911401681720F4861B809314010895D6
:103BD00010921401089580911301681720F4861B38
:103BE000809313010895109213010895809112019A
:103BF000681720F4861B8093120108951092120119
:103C0000089580911101681720F4861B809311019B
:103C1000089510921101089580911001681720F401
:103C2000861B8093100108951092100108958091D1
:103C30000F01681720F4861B80930F0108951092DE
:103C40000F0108958B3109F46DC000F58E3009F431
:103C500073C068F4873009F458C018F48630E9F16D
:103C600033C0883099F18B3009F4A2C02DC0813166
:103C700009F47DC020F4803109F468C025C0863184
:103C800009F496C0893109F493C01EC0853309F444
:103C900077C060F4873209F473C020F48E3108F0E5
:103CA00074C012C0893209F46BC00EC0833438F47A
:103CB0008A3308F06CC0883309F47AC005C08334B5
:103CC00009F45EC0883499F080E008950E94001BDA
:103CD0000E94121B0E941B1B6BC080916A03817F94
:103CE0008E7F80936A0381E080937A0308950E9417
:103CF000F60F2FEF83ED90E3215080409040E1F7E5
:103D000000C000000E94CD1753C090916A03892F14
:103D1000817090FF03C0917F9E7F26C09160909339
:103D20006A0346C090916A0391FB882780F921E0DD
:103D3000822780FB91F913C090916A0392FB882738
:103D400080F921E0822780FB92F909C090916A03F3
:103D500093FB882780F921E0822780FB93F99093D9
:103D60006A03882329F1916090936A0308950E9461
:103D7000F60F80910C0191E0892780930C0118C007
:103D800061E070E080E090E00FC023EE01C027EC1E
:103D9000280F61E070E080E090E004C0660F771FBC
:103DA000881F991F2A95D2F70E9425140E94F60FAA
:103DB00081E0089580E0089580E00895CF93C82FB2
:103DC00080917A03813069F018F08230B1F181C0BE
:103DD000A0910D01B0910E018C91823209F07BC04F
:103DE00007C0A0910D01B0910E018C91823249F46F
:103DF0008C2F0E94DA1E81111DC08C2F0E94221E62
:103E00001AC08C2F0E94DC1E811114C0C43179F0BD
:103E100048F4CB3079F0C03109F061C082E0809382
:103E20007A0308C0C93219F0C83321F058C0109283
:103E30007A0355C081E0817054C0C93291F120F5F8
:103E4000C43179F1B0F4C73009F047C08EE18093F6
:103E5000140182E3809313018AE08093120184E1CC
:103E60008093110188E08093100188E280930F0114
:103E700034C0CE51C63088F5EC2FF0E0EF52FD4F44
:103E800080818093790329C0CE34E9F020F4CB34CB
:103E900021F56AE013C0C13579F0C235F1F461E073
:103EA0000DC080917903882319F01092790315C011
:103EB00081E080937A0315C061E006C080917903A8
:103EC0000E945C1D0AC06AE0809179030E94D21DA5
:103ED00004C010927A0380E004C081E002C080E058
:103EE000AACFCF910895E1E8F0E0808188608083D7
:103EF0008081816080838FB7F89493E090938900EC
:103F000090ED909388008FBF0C94D426EFE6F0E0FC
:103F100080818260808381E080939B030C94EF26F4
:103F2000CF9380916F008D7F80936F0010929B03E1
:103F3000C0E08C2F0E94E226CF5FC530D1F7809180
:103F40009B03CF910C94EF2680919A038F6180930D
:103F50009A030895CF9310929A03C0E08C2F0E9489
:103F6000E226CF5FC530D1F780919B03CF910C94AF
:103F7000EF26E82FF0E0E057FC4F60830895E82F2C
:103F8000F0E0E057FC4F4081242F30E08FEF90E0CD
:103F9000861B9109821793071CF48FEF8083089585
:103FA000640F60830895CF93DF93D82FC0E06D2F07
:103FB0008C2F0E94BF1FCF5FC530C9F7DF91CF9113
:103FC0000895E82FF0E0E057FC4F8081861710F449
:103FD00010820895861B80830895CF93DF93D82F96
:103FE000C0E06D2F8C2F0E94E11FCF5FC530C9F755
:103FF000DF91CF91089580918F038F6180938F031C
:10400000089510928F03089590918E0321E030E07F
:10401000082E01C0220F0A94EAF7662311F0292B1B
:1040200002C02095292320938E030895CF93DF9318
:10403000D82FC0E06D2F8C2F0E940420CF5FC53099
:10404000C9F7DF91CF91089580938D0308958093F0
:1040500088038093890380938A0380938B038093E2
:104060008C030895809187038F618093870308955F
:104070001092870310928603089580938503089514
:104080001F920F920FB60F921124EF92FF920F938F
:104090001F932F933F934F935F936F937F938F93D0
:1040A0009F93AF93BF93CF93DF93EF93FF93809151
:1040B0007E038F5F80937E0305E913E0C0E0D0E0CC
:1040C000FC2E20919A0330E00C2E02C036952795E5
:1040D0000A94E2F720FF1AC080917E0381110DC07F
:1040E000F8018081882319F08C2F0E94D526FE01CB
:1040F000E057FC4F8081F801808390917E03F801A6
:104100008081981303C08F2D0E94E22621960F5FB5
:104110001F4FC530D105A1F680917D038F5F80349C
:1041200018F480937D03B8C010927D03E0908F0354
:10413000EE20E9F180917C038F5F80937C03909166
:104140008D039817A0F510927C0308E813E0C0E0F7
:10415000D0E0F12CC7010C2E02C0969587950A94E9
:10416000E2F780FF1AC0F8018081882319F081509E
:10417000808313C080918E0390E00C2E02C0969530
:1041800087950A94E2F761E080FF04C08C2F0E94BB
:10419000E11F03C08C2F0E94BF1F21960F5F1F4F8E
:1041A000C530D105B9F685E993E00E94B003F090DF
:1041B0008703FF2009F46CC080917B038F5F80939D
:1041C0007B0390918503981708F062C010927B03DF
:1041D00010917F0300918603A0E8B3E080E090E0B7
:1041E00041E050E02F2D30E0082E02C03695279593
:1041F0000A94E2F720FF3CC06C91E62FF0E0E35216
:10420000FE4FE491EC01C057DC4FE883212F30E0F2
:10421000082E02C0369527950A94E2F73C9120FFBC
:104220001AC0611115C0BA01082E01C0660F0A94A8
:10423000EAF760951623202F30E0082E02C036954D
:1042400027950A94E2F720FF13C00623F62210C038
:1042500061506C930DC06F3741F49A01082E01C074
:10426000220F0A94EAF7122B03C021E0230F2C93AC
:10427000019611968530910509F0B4CFF09287032D
:1042800010937F030093860385E993E00E94B103B6
:104290000E94AF030E94A823FF91EF91DF91CF917D
:1042A000BF91AF919F918F917F916F915F914F914E
:1042B0003F912F911F910F91FF90EF900F900FBEA4
:1042C0000F901F90189525B1242B55B1342F3095A0
:1042D000352354B1542B54B94FB7F894FC01CB019A
:1042E000880F991F860F971F8E0F9F1FE817F907DA
:1042F00089F0519168E025B9000000C057FF35B939
:10430000550F000000C000C000C035B900C06A955C
:1043100091F7ECCF4FBF089521B3242B51B3342F25
:104320003095352350B3542B50BB4FB7F894FC0154
:10433000CB01880F991F860F971F8E0F9F1FE817BD
:10434000F90789F0519168E021BB000000C057FFD8
:1043500031BB550F000000C000C000C031BB00C021
:104360006A9591F7ECCF4FBF0895EF92FF920F93AC
:104370001F93CF93DF9300D000D01F92CDB7DEB74D
:10438000F90170E0869F9001879F300D1124232F43
:104390003327E42EF12C2E9D80012F9D100D3E9D84
:1043A000100D1124A0E0B1E0A61BB70BAE9D90014B
:1043B000AF9D300DBE9D300D11243C833983232FDA
:1043C000210F2D832A83411B4B83892F90E063E0CB
:1043D00070E00E94C629DE01A80FB91F13962C9128
:1043E0002183DE01A80FB91F12962C912083DE01D4
:1043F000A80FB91F11968C9182830F900F900F9088
:104400000F900F90DF91CF911F910F91FF90EF9040
:104410000895DF92EF92FF920F931F93CF93DF9354
:1044200000D01F92CDB7DEB780919F03882309F497
:1044300044C0D12CE12C53E0F52E60911501D61625
:1044400058F50D2D10E070E0C7010E94DA29609F39
:10445000F001619FF00D709FF00D11248091A00379
:104460009091A1039E012F5F3F4F4091A303609164
:10447000A2038E0F9F1F0E94B521F801EE0FFF1FB0
:10448000E00FF11FEC55FC4F29813A814B812083CD
:1044900031834283D394D1CF6091150184EA93E0B4
:1044A0000E941C270F900F900F90DF91CF911F91CA
:1044B0000F91FF90EF90DF9008959E012F5F3F4F87
:1044C0004091A3036091A2038091A0039091A10366
:1044D0000E94B52120E0809115012817E8F6822F6F
:1044E00090E0FC01EE0FFF1FE80FF91FEC55FC4FA9
:1044F00089819A81AB8180839183A2832F5FEBCFE7
:10450000811103C01092A30306C0909116019093ED
:10451000A3038830D8F41092E20310929F038823FB
:1045200099F0873019F41092A2030EC090E0019721
:104530009695982F8827979587959093A1038093B8
:10454000A0038FEF8093A2030C9409229FEF909316
:10455000A20391E09093E203893008F490E09093F5
:104560009F030895CF931092A1031092A0038FEFA1
:104570008093A203CFE0C093A3030E94241B8093E7
:10458000E0030E942D1B8F3018F08093160102C0AB
:10459000C09316018091E00387FF07C08F770E94C8
:1045A00080228091E0038F7704C080E00E94802207
:1045B00080E00E94802281E08093E103CF91089502
:1045C0008091E00380688093E003982F9F7721F427
:1045D000807881608093E0038091E0038F770E9470
:1045E00080228091E0030C94281B8091E0038F7758
:1045F0008093E00380E00E9480228091E0030C948D
:10460000281B8091E00387FD0C94F5220C94E02296
:104610008091E003982F9F7791F091589F77807851
:10462000892B8093E0038F7791E009F490E08091EB
:10463000E00390FB87F98093E0030E94281B8091A0
:10464000E0038F770C9480228091E003982F9F776E
:10465000292F30E0293031054CF49F5F9F77807817
:10466000892B80688093E0030E94281B8091E003DF
:104670008F770C9480223091E00321E0230F2F7775
:10468000822F90E030780A9724F4232B2093E003C4
:1046900002C03093E0038091E0038F7791E009F44A
:1046A00090E08091E00390FB87F98093E0030E9403
:1046B000281B8091E0038F770C948022853108F0CD
:1046C00084E1809315018091E103882329F0809192
:1046D000E00387FD0C94092208959091E10399234A
:1046E000A9F08F3008F48FE080931601662321F043
:1046F000809116010E94311B8091E00387FF06C064
:10470000809116018093A3030C940922089590913F
:104710001601292F30E02E503109482F50E0421762
:1047200053071CF4981B892F01C08FE00C946D2354
:1047300090911601492F50E02FEF30E0281B3109EE
:104740002417350714F0890F01C08FEF0C946D23E7
:104750008091E203882329F180919E038F5F8093EB
:104760009E039091E2039817E0F410929E038091CB
:104770009C0390919D039093A1038093A0030E94BA
:10478000092280919C0390919D03019690939D0333
:1047900080939C038115934020F010929D0310920A
:1047A0009C0308950E94F51A811102C00E94C61A46
:1047B0000E941B1B8093080480FF02C0869501C0E5
:1047C00080E00C9420038091080480FF14C0982F8F
:1047D0009695292F30E02830310544F49F5F990FDA
:1047E0008170892B809308040E941F1B809108040C
:1047F00086950C94200308958091080480FF14C0CE
:10480000982F9695292F30E02230310544F09158A9
:10481000990F8170892B809308040E941F1B80913F
:10482000080486950C942003089580910804982F1D
:104830009095917090FB80F980930804992339F04A
:10484000982F9E7F21F4817082608093080480916C
:1048500008040E941F1B8091080480FF02C08695F7
:1048600001C080E00C94200330910804232F26958A
:104870002F5F2F77822F90E0317009972CF4220F51
:10488000232B2093080402C030930804809108046D
:104890008E7F91E009F490E08091080490FB80F90C
:1048A000809308040E941F1B8091080486950C9435
:1048B0002003880F909108049170982B909308041E
:1048C0009E7F21E009F420E08091080420FB80F91C
:1048D000809308040E941F1B8091080486950C9405
:1048E0002003823079F028F4882341F0813041F0B0
:1048F0000895833049F0843049F008952A9A089544
:104900008F9A08958E9A08958D9A08958C9A089595
:10491000823079F028F4882341F0813041F0089505
:10492000833049F0843049F008952A9808958F988B
:1049300008958E9808958D9808958C9808952091E3
:10494000E90330E0082E02C0369527950A94E2F775
:1049500020FD0C9471240C9488242091E90330E00C
:10496000082E02C0369527950A94E2F720FD0C9494
:1049700088240C947124CF93DF93229A879A869A85
:10498000859A849AC0E0D0E08091EA0390E00C2EF2
:1049900002C0969587950A94E2F780FD03C08C2F9C
:1049A0000E94AD242196C530D10571F7DF91CF91DA
:1049B0000895EF92FF920F931F93CF93DF93F82EFA
:1049C000E62E0091F0030827611102C009F448C0E7
:1049D000C0E0D0E010E08C2F9C2F2091EA0330E063
:1049E0000C2E02C0369527950A94E2F720FD31C0BF
:1049F00020919A0330E00C2E02C0369527950A9438
:104A0000E2F720FF0BC02091EC0330E00C2E02C037
:104A1000369527950A94E2F720FD1BC0E11009C0E6
:104A20009801092E02C0369527950A94E2F720FFD7
:104A300010C02091EB032F2530E002C0369527955A
:104A40009A95E2F720FF03C00E949F2402C00E94B3
:104A5000AD242196C530D10509F0BDCFF092F00309
:104A6000DF91CF911F910F91FF90EF900895DF920A
:104A7000EF92FF920F931F93CF93DF93C0E0D0E0AC
:104A8000F12C01E010E0EE24E394DC2E8C2F0E9448
:104A9000A22797FF21C09091EA0398010C2E01C034
:104AA000220F0A94EAF7922B9093EA03FE01EC514D
:104AB000FC4F8083F81608F4F82E8091E3038111EF
:104AC00005C0D394D394D092E3035BC0823008F442
:104AD00058C0E092E30355C096FF0BC08091E903F4
:104AE000A8010C2E01C0440F0A94EAF7842B80938E
:104AF000E90394FF0BC08091EB03A8010C2E01C0C9
:104B0000440F0A94EAF7842B8093EB0395FF0BC0C4
:104B10008091EC03A8010C2E01C0440F0A94EAF71F
:104B2000842B8093EC039F70292F30E022303105D5
:104B300089F023303105D1F02130310511F50C2EEB
:104B400001C0220F0A94EAF78091EE03822B809332
:104B5000EE0317C08091ED0398010C2E01C0220FC7
:104B60000A94EAF7822B8093ED030BC08091EF0348
:104B700098010C2E01C0220F0A94EAF7822B809331
:104B8000EF032196C530D10509F07FCF0E94BB24E9
:104B900061E080E00E94D9248F2DDF91CF911F9199
:104BA0000F91FF90EF90DF900C945E23CF92DF92F5
:104BB000EF92FF920F931F93CF93DF939091EF03A8
:104BC0009923C9F1D090F003C0E0D0E0E82EF12C99
:104BD00001E010E02091EF0330E08C2F0C2E02C09A
:104BE000369527950A94E2F720FF15C00E94A22768
:104BF000970102C0359527958A95E2F7C90198017A
:104C00000C2E01C0220F0A94EAF780FF02C0D22ABC
:104C100002C02095D2222196C530D105D9F660E098
:104C20008D2DDF91CF911F910F91FF90EF90DF902D
:104C3000CF900C94D924DF91CF911F910F91FF90C9
:104C4000EF90DF90CF900895AF92BF92CF92DF9216
:104C5000EF92FF920F931F93CF93DF936B017C0131
:104C60008091EE038823E9F1B090F003C0E0D0E03A
:104C700001E010E02091EE0330E00C2E02C03695EA
:104C800027950A94E2F720FF1AC08C2F0E94A227D2
:104C9000A701960104C056954795379527958A95A3
:104CA000D2F7DA01C90198010C2E01C0220F0A9433
:104CB000EAF780FF02C0B22A02C02095B2222196F4
:104CC000C530D105B9F660E08B2DDF91CF911F91F2
:104CD0000F91FF90EF90DF90CF90BF90AF900C942A
:104CE000D924DF91CF911F910F91FF90EF90DF902A
:104CF000CF90BF90AF900895AF92BF92CF92DF92C6
:104D0000EF92FF920F931F93CF93DF936B017C0180
:104D10008091ED038823E9F1B090F003C0E0D0E08A
:104D200001E010E02091ED0330E00C2E02C036953A
:104D300027950A94E2F720FF1AC08C2F0E94A22721
:104D4000A701960104C056954795379527958A95F2
:104D5000D2F7DA01C90198010C2E01C0220F0A9482
:104D6000EAF780FF02C0B22A02C02095B222219643
:104D7000C530D105B9F660E08B2DDF91CF911F9141
:104D80000F91FF90EF90DF90CF90BF90AF900C9479
:104D9000D924DF91CF911F910F91FF90EF90DF9079
:104DA000CF90BF90AF90089508952091EC0330E02C
:104DB000082E02C0369527950A94E2F720FD0C9440
:104DC0009F2408952091EC0330E0082E02C0369510
:104DD00027950A94E2F720FD0C94AD24089561E034
:104DE0008091F0030C94D9244230B1F028F444238C
:104DF00041F0413061F00895433099F04430B1F012
:104E000008956091E40370E044E00C9463216091A4
:104E1000E50370E040E80EC06091E60370E040E416
:104E200009C06091E70370E040E204C06091E803CC
:104E300070E040E10C948C21FF920F931F93CF936D
:104E4000DF938C01F62E4091E303423040F0425054
:104E5000DF91CF911F910F91FF900C94F426C0E049
:104E6000D0E02091EA0330E00C2E02C03695279561
:104E70000A94E2F720FF0BC0FE01EC51FC4F808149
:104E8000882329F04C2F6F2DC8010E94F42621960B
:104E9000C530D10531F7DF91CF911F910F91FF9070
:104EA0000895CF92DF92EF92FF920F931F93CF93CB
:104EB000DF9301EF13E099E0E92EF12CC0E0D0E0A0
:104EC000C7010E94FC29F80191838083019699F41F
:104ED0006E01CC0CDD1CC6018F509C4F6C018C2FD9
:104EE0000E94B203F60191838083F8016081718191
:104EF000C7010E94102A2196F2E0EF0EF11C0E5F0E
:104F00001F4FC530D105E1F6DF91CF911F910F9171
:104F1000FF90EF90DF90CF9008951F93CF93DF9392
:104F2000C9E0D0E010E0812F0E94B203BC01CE01A5
:104F30000E94102A1F5F22961530A9F7DF91CF91AA
:104F40001F910895E82FF0E0EE0FFF1FEF50FC4F88
:104F5000808191810895DF92EF92FF920F931F93CA
:104F6000CF93DF9383E190E00E94FC297C01C0E0B5
:104F7000D0E00DEE1EEF0E94FA01D82E0E94FC0137
:104F8000D89EC001112423E0880F991F2A95E1F7CC
:104F90009C01205C3F4FC217D30770F4CE014596A9
:104FA0000E94F429282F30E0C0FF02C0322F2227B0
:104FB000020F131F2196DFCF81E0E016F10609F002
:104FC00080E0DF91CF911F910F91FF90EF90DF90E4
:104FD000089590E0880F991F45960C94FC2990E065
:104FE000880F991F45960C94102AEF92FF921F93F9
:104FF000CF93DF9300D0CDB7DEB7182F4A836983F4
:105000000E94FA01F82E0E94FC01F89EC0011124B2
:10501000189F7001199FF00C11240E94FC016981F6
:105020009701689F200D311D1124C9014A81840F09
:10503000911D8B5A9F4F0F900F90DF91CF911F9131
:10504000FF90EF900C94F4298B5A9F4F0C94022AF6
:105050008F929F92AF92BF92CF92DF92EF92FF9288
:105060000F931F93CF93DF930E94F0017C010E9466
:10507000ED015C01E114F104F1F00E9478014C01B2
:10508000C0E0D0E00DEE1EEFC815D90520F4F70101
:10509000C590D49002C0C12CD12CB6018C2F0E9497
:1050A000EF270C0D1D1D219682E0E80EF11CC03289
:1050B000D10551F702C00DEE1EEFA114B10461F14C
:1050C0000E9475017C01C0E0D0E00E94FA01D82E58
:1050D0000E94FC01D89EC0011124F3E0880F991FA3
:1050E000FA95E1F7C817D907B8F4CE15DF0528F40B
:1050F000F501EC0FFD1FD49001C0D12C6D2DCE0118
:105100000E9424286D2D70E0C0FF02C0762F662714
:10511000060F171F2196D9CFB80183E190E0DF91E8
:10512000CF911F910F91FF90EF90DF90CF90BF90A4
:10513000AF909F908F900C94102A0E94AB27811102
:1051400002C00C942828089504D06894B1118DC031
:10515000089570D088F09F5790F0B92F9927B751D4
:10516000A0F0D1F0660F771F881F991F1AF0BA952B
:10517000C9F712C0B13081F077D0B1E0089574C0A2
:10518000672F782F8827B85F39F0B93FCCF3869521
:1051900077956795B395D9F73EF49095809570957E
:1051A00061957F4F8F4F9F4F0895E89409C097FBFB
:1051B0003EF490958095709561957F4F8F4F9F4FEE
:1051C0009923A9F0F92F96E9BB279395F695879532
:1051D00077956795B795F111F8CFFAF4BB0F11F4F5
:1051E00060FF1BC06F5F7F4F8F4F9F4F16C088239C
:1051F00011F096E911C0772321F09EE8872F762FD2
:1052000005C0662371F096E8862F70E060E02AF012
:105210009A95660F771F881FDAF7880F96958795FE
:1052200097F9089557FD9058440F551F59F05F3F67
:1052300071F04795880F97FB991F61F09F3F79F0B8
:1052400087950895121613061406551FF2CF46953A
:10525000F1DF08C0161617061806991FF1CF8695BC
:105260007105610508940895E894BB2766277727A0
:10527000CB0197F908950BD078C069D028F06ED093
:1052800018F0952309F05AC05FC01124EECFCADF91
:10529000A0F3959FD1F3950F50E0551F629FF00149
:1052A000729FBB27F00DB11D639FAA27F00DB11DA2
:1052B000AA1F649F6627B00DA11D661F829F22272B
:1052C000B00DA11D621F739FB00DA11D621F839FB2
:1052D000A00D611D221F749F3327A00D611D231F88
:1052E000849F600D211D822F762F6A2F11249F57D6
:1052F00050408AF0E1F088234AF0EE0FFF1FBB1FF9
:10530000661F771F881F91505040A9F79E3F510597
:1053100070F014C0AACF5F3FECF3983EDCF38695A3
:1053200077956795B795F795E7959F5FC1F7FE2B42
:10533000880F911D9695879597F9089597F99F671E
:1053400080E870E060E008959FEF80EC089500240D
:105350000A941616170618060906089500240A94DA
:1053600012161306140605060895092E0394000C60
:1053700011F4882352F0BB0F40F4BF2B11F460FFEF
:1053800004C06F5F7F4F8F4F9F4F0895AA1BBB1BB9
:1053900051E107C0AA1FBB1FA617B70710F0A61B35
:1053A000B70B881F991F5A95A9F780959095BC0156
:1053B000CD01089597FB072E16F4009407D077FDD2
:1053C00009D00E94C62907FC05D03EF4909581952E
:1053D0009F4F0895709561957F4F0895EE0FFF1FC1
:1053E0000590F491E02D0994F999FECF92BD81BD0D
:1053F000F89A992780B50895A8E1B0E042E050E01E
:105400000C94172A262FF999FECF1FBA92BD81BDA1
:1054100020BD0FB6F894FA9AF99A0FBE0196089536
:105420000E94022A272F0C94032ADC01CB01FC01E5
:10543000F999FECF06C0F2BDE1BDF89A319600B4ED
:0E5440000D9241505040B8F70895F894FFCFF8
:10544E0005BB0348042504F103BE030101550328DF
:10545E0008140A321E140F404D3639910244020EC2
:10546E0002D501680181019A01B301040E0C5201AB
:10547E00420134010C034F00520047003600300049
:10548E0000000E034F00720061006E0067006500A1
:10549E0000000403090409026D00040100A0320992
:1054AE000400000103010100092111010001224045
:1054BE00000705810308000A090401000103010227
:1054CE0000092111010001224D0007058203080089
:1054DE000A09040200010300000009211101000164
:1054EE002236000705830308000A0904030001039E
:1054FE000000000921110100012239000705840373
:10550E001000011201100100000008EDFE606001A4
:10551E00000102000105010906A101050719E02994
:10552E00E715002501950875018102050819012965
:10553E0005950575019102950175039101050719F0
:10554E0000297715002501957875018102C00501A6
:10555E000980A101850216010026B7001A01002A52
:10556E00B700751095018100C0050C0901A10185D8
:10557E0003160100269C021A01002A9C0275109542
:10558E00018100C005010902A1010901A10005095F
:10559E001901290515002501950575018102950151
:1055AE00750381010501093009311581257F9502A9
:1055BE007508810609381581257F950175088106C4
:1055CE00050C0A38021581257F950175088106C0E4
:1055DE00C005010906A101050719E029E7150025F7
:1055EE00019508750181029501750881010508195B
:1055FE000129059505750191029501750391010526
:10560E0007190029FF150026FF0095067508810071
:0C561E00C0010203040506070809000093
:00000001FF
